:100000000C94E3000C940B010C940B010C940B0169
:100010000C940B010C940B010C940B010C940B0130
:100020000C940B010C940B010C94A2440C940B4502
:100030000C940B010C940B010C940B010C940B0110
:100040000C940B010C940B010C940B010C940B0100
:100050000C940B010C940B010C940B010C947D2B54
:100060000C940B010C940B010C940B010C940B01E0
:100070000C940B010C940B010C940B010C940B01D0
:100080000C940B010C940B010C940B010C940B01C0
:100090000C940B010C940B010C940B010C940B01B0
:1000A0000C940B010C940B010C940B013D27402781
:1000B0002F273327392761276127612744274827BE
:1000C0004C275227562761275C276364696E6F703F
:1000D000737578585B0000000000250028002B0095
:1000E0002E003100000000002300260029002C0013
:1000F0002F000404040404030405020202020403A2
:1001000002020202060606060606040402020204B1
:100110000404080201104080401020408040800804
:100120000204018040201002011080102040402075
:100130000000000200090F0000030401000C000091
:1001400000000000000000000000000000000008A7
:100150000B0002020201000904000001020200007B
:1001600005240010010524010101042402060524D0
:100170000600010705810310004009040100020A7E
:10018000000000070502024000000705830240004E
:10019000000403090412010002EF0201409A231136
:1001A0008000010102030141646166727569740097
:1001B0004369726375697420506C617967726F75F9
:1001C0006E640000DA4A11241FBECFEFDAE0DEBF12
:1001D000CDBF14E1A0E0B1E0E0E8F0EB02C0059093
:1001E0000D92A23AB107D9F725E1A2EAB4E101C024
:1001F0001D92AF31B207E1F710E0C3EED0E004C0CA
:100200002197FE010E94A950C23ED107C9F70E9462
:1002100059470C943E580C940000FC018281938154
:100220000196938382839783868384819581019746
:100230009583848321E030E084819581A281B3811C
:100240008230910550F04C914C3549F41196B383AE
:10025000A2830197958384831CC0009719F04C9169
:100260004D3799F42150310911F0009791F49D0117
:1002700021503109318720870097B1F01196B3835F
:10028000A2830197958384830FC04B3711F42F5FAE
:100290003F4F8281938101969383828384819581EC
:1002A000019795838483C8CF81E090E0938782870C
:1002B00080E090E00895DF92EF92FF920F931F93FA
:1002C000CF93DF93EC018A859B859C0124503109F3
:1002D000DD24D3942230310518F0019709F0D12C98
:1002E0000C811D8103301105C0F0EA80FB8043E0E2
:1002F00050E065E574E0C7010E941D52892B69F446
:1003000081E090E09F878E8783E0E80EF11CFB82FE
:10031000EA82035011091D830C83DD20E9F0EA8194
:10032000FB8180818B3751F4CE01DF91CF911F91FA
:100330000F91FF90EF90DF900C940D01823261F4E9
:1003400081E090E09D878C873196FB83EA838C81E6
:100350009D8101979D838C838A819B819F838E835E
:100360002C813D81EA81FB812115310539F18081A4
:10037000823251F154F48D30E9F024F48950823006
:10038000B8F518C08032B1F033C08B3399F01CF44B
:100390008432A1F02DC08B3589F08C3549F522309F
:1003A000310530F13196FB83EA83215031093D83D9
:1003B0002C831EC08C859D85892BD1F43197F987BC
:1003C000E8871B861A861FC08C859D85892B81F046
:1003D000CF010197998788871B861A863196FB8300
:1003E000EA83215031093D832C831D861C860BC076
:1003F0008A819B8101969B838A838C819D81019751
:100400009D838C83ADCF80E090E0DF91CF911F91F1
:100410000F91FF90EF90DF9008958F929F92AF928F
:10042000BF92CF92DF92EF92FF920F931F93CF93E1
:10043000DF93009709F485C0FC012081222309F491
:1004400080C07B01EC018E01C88021968C2D0C2C84
:10045000000C990B0E94644E892BA9F7CC2009F45B
:1004600070C0E801812C912CA12CB12CD880FBE725
:10047000DF1204C08FEFA81AB80A61C0EDE7DE12E0
:1004800004C0F1E0AF1AB1085AC0A114B10409F0D8
:1004900050C082E2D81214C08114910431F0EBE70D
:1004A000CE16E1F080E090E01DC00C171D0709F4A6
:1004B00043C082E290E00E94644E892BE9F53FC080
:1004C0008114910499F58D2D0D2C000C990B0E942F
:1004D000644E892B21F7DD2011F331C00F5F1F4FD0
:1004E00081E090E0F8012081223229F40F5F1F4F54
:1004F000219681E090E06E01C01AD10AC81AD90A8B
:10050000A601B801C7010E942B52F701EC0DFD1D99
:1005100010828E01E8010F5F1F4F8881082E000CAA
:10052000990B0E94644E892BA9F70EC088248394EE
:10053000912CD11004C008C088248394912C21965A
:1005400095CF80E090E001C0CE01DF91CF911F9167
:100550000F91FF90EF90DF90CF90BF90AF909F9062
:100560008F9008958F929F92AF92BF92CF92DF9219
:10057000EF92FF920F931F93CF93DF93EC015B01F8
:1005800018828A01E12CF12CEA14FB0454F548018D
:10059000F801808191810E946F3B6C0188818823E2
:1005A00029F061E974E1CE010E94F751C114D10430
:1005B00029F069E574E0CE010E94F7510E5F1F4FEC
:1005C000F40160817181CE010E94F751CD2829F09C
:1005D00067E574E0CE010E94F751FFEFEF1AFF0AC2
:1005E000D3CFCE01DF91CF911F910F91FF90EF906C
:1005F000DF90CF90BF90AF909F908F9008950F9312
:100600001F93CF93DF938B01FC01C681D781209785
:1006100089F088819981FC013081F80120813213B1
:1006200005C0B8010E940D52892B39F00E80DF8180
:10063000C02DEDCF80E090E001C0CE01DF91CF91E1
:100640001F910F9108950F931F93CF93DF938B0109
:10065000DC011496ED91FC911597C081D181DB01ED
:100660008C918A3331F411968C918A3311F481E0A4
:1006700003C0452B71F080E02481358121153105BF
:1006800011F0F901F9CFC081D181882311F00E5FFB
:100690001F4F209789F088819981FC013081D80112
:1006A0002C91321305C0B8010E940D52892B39F0EC
:1006B0000C80DD81C02DEDCF80E090E001C0CE0147
:1006C000DF91CF911F910F9108956F927F928F923A
:1006D0009F92AF92BF92CF92DF92EF92FF920F93D1
:1006E0001F93CF93DF936C017B015A01490140E0D6
:1006F00050E0B701C6010E9423038C01F7018081FD
:100700008A3309F04FC081818A3309F04BC0C1E0C0
:1007100041E050E0B701C6010E9423038C0101159E
:10072000110559F0F8018281938188248394912CDA
:100730000097E9F20E940D4F2BC0F601648075808E
:10074000892829F4C11105C0C62DD72D0DC0CC2391
:1007500019F0E2E0EE0EF11CC62DD72D8C819D81A3
:10076000009711F0EC01FACF86E090E00E94754E00
:100770008C01C7010E94BB51F8019183808388815D
:1007800099819583848319830883F6016482758235
:10079000A114B10421F0C5010E94BB5109C080E041
:1007A00090E006C0C0E08114910409F0B1CFB7CF4A
:1007B000F8019383828380E090E0DF91CF911F91D5
:1007C0000F91FF90EF90DF90CF90BF90AF909F90F0
:1007D0008F907F906F9008950F931F93CF93DF9327
:1007E000EC018B018A859B850E940D4FC8010E94F8
:1007F000BB519B878A8780E090E0DF91CF911F916A
:100800000F9108958F929F92AF92BF92CF92DF92F5
:10081000EF92FF920F931F93CF93DF93CDB7DEB785
:10082000DA950FB6F894DEBF0FBECDBF6C015B0149
:100830001A821982FE0133968EEFDF011D928A958E
:10084000E9F7FB0101900020E9F731978F01061BC2
:10085000170B0F3F110511F008F080C0CE01019673
:100860000E94F751F601E084F184E114F10461F192
:100870000A3E11050CF074C060E674E0CE010196EA
:100880000E94F751F70101900020E9F731974F01DD
:100890008E189F08C801880D991D8F3F910511F092
:1008A00008F05EC0B701CE0101960E94F7510F3FDC
:1008B000110509F455C065E774E0CE0101960E9468
:1008C000F751C401479602C080E090E0D60114962B
:1008D000ED90FC901597F70122813381232B09F4C9
:1008E00068C024813581232B09F463C0080F191FC8
:1008F000C8014A968F3F910509F090F567E774E0CB
:10090000CE0101960E94F751D70112966D917C910C
:100910001397FB0101900020E9F731974F01861AE8
:10092000970AC801880D991D8F3F910509F0C0F401
:10093000CE0101960E94F751C80101968F3F9105A3
:1009400009F070F465E774E0CE0101960E94F7515A
:10095000C4014B96F701E480F580BDCF00E010E0C4
:10096000E1E0F0E0EC0FFD1FE00FF11F1082101628
:100970001106E4F4ABE5B4E0FD0101900020E9F7D5
:100980003197EA1BFB0BE00FF11FEF3FF10509F078
:1009900080F4101611061CF06CE574E002C06BE5E3
:1009A00074E0CE0101960E94F75103C0ACE5B4E0BB
:1009B000E3CF21E030E0AE014F5F5F4F62E974E0CA
:1009C000C6010E946503B501C6010E94EC0381E0E7
:1009D00090E0D3950FB6F894DEBF0FBECDBFDF9188
:1009E000CF911F910F91FF90EF90DF90CF90BF902C
:1009F000AF909F908F900895EF92FF920F931F9367
:100A0000CF93DF93CDB7DEB7DA950FB6F894DEBF9C
:100A10000FBECDBF7C015F934F937F936F938E0189
:100A20000F5F1F4F1F930F930E94A152B801C70180
:100A30000E9402040F900F900F900F900F900F9054
:100A4000D3950FB6F894DEBF0FBECDBFDF91CF9127
:100A50001F910F91FF90EF9008952F923F924F9228
:100A60005F926F927F928F929F92AF92BF92CF923E
:100A7000DF92EF92FF920F931F93CF93DF93CDB747
:100A8000DEB7C452D3400FB6F894DEBF0FBECDBF61
:100A9000CB5EDC4F99838883C551D3408B01C15E07
:100AA000DC4F59834883CF51D34066E971E10E94FE
:100AB000EC032E012FEF421A2CEF520AD2011396AB
:100AC0001C930E93129711961C930E93F8010190AC
:100AD0000020E9F73197E01BF10B1596FC93EE939C
:100AE000149717961C921E92169719961C921E9296
:100AF00018971D961C921E921C9785E090E01B96FD
:100B00009C938E931A971F961C921E921E97C95EF5
:100B1000DC4F19821882C751D340812C912C212C93
:100B2000312CFE01EF5EFC4FCD5EDC4FF983E88394
:100B3000C351D340C55FDC4F88819981CB50D340EE
:100B4000C35EDC4F99838883CD51D340D201149684
:100B50002D913C9115972115310571F4C35EDC4F41
:100B600088819981CD51D3400597029708F0A2C0A2
:100B7000E6E0F0E0D20194C1D2011296ED91FC9131
:100B800013978081803271F154F48A3009F464C083
:100B90008D3009F461C0893009F0C2C123C08432AC
:100BA00009F4ECC024F4833209F487C1B9C18B3352
:100BB00009F452C08B3509F0B3C13196D2011396B6
:100BC000FC93EE9312971796FC93EE931697215091
:100BD000310915963C932E93149720E030E041E0C4
:100BE00050E081C0D2011C968D919C911D97892B5C
:100BF00009F096C1D2011796FC93EE931697F20175
:100C000002811381D801FC908F2D0F2C000C990BC1
:100C10000E94644E892B39F4BCE5FB1215C0F80123
:100C200081818A3089F40F5F1F4FD20113961C9384
:100C30000E93129714968D919C9115970197159686
:100C40009C938E931497DBCF01501109F201118709
:100C5000008784E090E0AEC0D2011C968D919C91FB
:100C60001D97892B09F05CC11796FC93EE9316979C
:100C7000F20102811381D801FC908F2D0F2C000C02
:100C8000990B0E94644E892B19F4BBE3FB120BC035
:100C90000F5F1F4FF20113830283848195810197B7
:100CA00095838483E5CF01501109D20119961C93D5
:100CB0000E931897E5E0F0E0F3C00280F381E02D99
:100CC00060816B35B1F42115310511F44F5F5F4F31
:100CD000F20182819381019693838283848195813D
:100CE000019795838483F20184819581009729F788
:100CF00024C06D3539F42115310551F741505109A2
:100D000039F71BC06C3561F43196D2011396FC9310
:100D1000EE931297019715969C938E931497D8CFC4
:100D20006B3719F42F5F3F4FD3CF6D3789F62115FD
:100D3000310571F221503109CBCFD2011296ED91DC
:100D4000FC9113979F012150310919963C932E93E2
:100D5000189722E030E01B963C932E931A9720813F
:100D60002D3509F0E0C031961396FC93EE9312975F
:100D7000019715969C938E931497D5C07F01BFEF72
:100D8000EB1AFB0AD2011396FC92EE921297179679
:100D9000FC92EE921697C901019715969C938E933B
:100DA000149781818B3749F4C2010E940D0183E0C1
:100DB00090E0F20193878287B6C08A3379F482810A
:100DC0008A3361F43396D2011396FC93EE93129713
:100DD0002350310915963C932E931497C12CD12C96
:100DE000F20102811381D801BC908B2D0B2C000CD9
:100DF000990B0E949651892B51F4BFE5BB1669F0FF
:100E0000E8E2BE1639F0F9E2BF1639F017C028E261
:100E1000B21203C0CC24C394D12C0F5F1F4FD20158
:100E200013961C930E93129714968D919C9115977F
:100E3000019715969C938E931497D2CFCD2891F459
:100E4000F8018291893271F4D2011396FC93EE93EA
:100E5000129714968D919C911597019615969C93D7
:100E60008E931497F20182819381E816F906E9F4D2
:100E7000C2010E945B01D20116968D919C91179739
:100E8000019717969C938E93169714968D919C912B
:100E90001597019615969C938E931497E1E0F0E0D8
:100EA0001B96FC93EE931A973EC00197918780871B
:100EB00083E090E09387828736C0C35EDC4FE88191
:100EC000F981CD51D340359759F5D20114968D91C2
:100ED0009C911597009709F439CE1296ED91FC91EB
:100EE000139720812A3009F431CE2C3569F4218101
:100EF0002A3051F431961396FC93EE931297019792
:100F000015969C938E931497F2018281938101969A
:100F10009383828384819581019795838483D5CF40
:100F2000C2010E945B01D2011A960D90BC91A02DC6
:100F3000C75EDC4FB983A883C951D340169709F423
:100F4000E4C3F20160847184E680F7806E147F044C
:100F500030F06E187F08FFEF6F1A7F0A02C0612C15
:100F6000712CC30101960E94754E8C01C75EDC4F47
:100F700088819981C951D3408D7F019709F085C03F
:100F8000C55EDC4F19830883CB51D340C12CD12CD3
:100F9000C3010197CD5DDC4F99838883C352D34051
:100FA000C614D70408F068C0C114D10431F0F701A9
:100FB000319780818C3509F44BC0D7018C918C35E9
:100FC00009F046C0CD5DDC4FE881F981C352D340C2
:100FD000CE16DF06E8F511968C918A30C9F55701D7
:100FE000F2E0AF0EB11CC60102966816790609F44C
:100FF00043C0C6018E199F09CF5DDC4F998388835A
:10100000C152D340CF5DDC4FC880D980C152D3409C
:10101000CA0CDB1C75019FEFA91AB90AD7018C9184
:10102000082E000C990B0E94644E892B59F7C55E5F
:10103000DC4FE881F981CB51D34020E22193C55E9A
:10104000DC4FF983E883CB51D3406C147D04A1F0CD
:10105000D7018D917D01C55EDC4FE881F981CB51CF
:10106000D3408193C55EDC4FF983E883CB51D340F5
:10107000FFEFCF1ADF0A94CFC55EDC4F688079801E
:10108000CB51D340601A710A05C0A301B701C80152
:101090000E94D551F801E60DF71D1082C75EDC4FA6
:1010A00088819981C951D340039709F041C040E03C
:1010B00050E0B801CB5EDC4F88819981C551D340A7
:1010C0000E9423037C010097A9F0DC0112968D9108
:1010D0009C911397892B09F541E050E0B801CB5E54
:1010E000DC4F88819981C551D3400E9423037C0144
:1010F000892B99F4A8016EE974E0CB5EDC4F8881FE
:101100009981C551D3400E94FC04C95EDC4F99838C
:101110008883C751D340E12CF12CC8010E940D4FA8
:10112000E114F10409F4F1C2F701828193812DC029
:10113000C75EDC4F88819981C951D340029749F538
:1011400041E050E0B801CB5EDC4F88819981C55108
:10115000D3400E942D05C95EDC4F99838883C75117
:10116000D340C8010E940D4FC95EDC4FA881B981F0
:10117000C751D340AB2B09F0C8C2CB5EDC4FE8812E
:10118000F981C551D340828593850E94BB518C0162
:10119000A8C0C75EDC4F88819981C951D340892B93
:1011A00009F096C06CE570E0C8010E940252892BDC
:1011B00009F497C06801DE01AF5FBD4F7D015AE0C1
:1011C000652E69E0762EF6018081882309F477C0C8
:1011D0008C3509F06BC081818E36C1F04CF48A30B9
:1011E00009F447C08C3509F066C0D7018C9313C051
:1011F000843779F08837B1F0823709F05CC0EDE0D0
:10120000D701EC93FFEFCF1ADF0A52C0D7016C92DF
:1012100002C0D7017C92BFEFCB1ADB0AF7013196EF
:101220007F0149C0CC5EDC4FF881C451D340FF93AD
:10123000CD5EDC4F2881C351D3402F9380EC94E0E6
:101240009F938F93C60102969F938F930E94C352E0
:10125000CF5EDC4F8881C151D340F7018083F3E03A
:10126000CF0ED11C0F900F900F900F900F900F90FA
:101270001FC05701FFEFAF1ABF0AE0E2D701EC939E
:10128000F2E0CF0ED11C76012FEFC21AD20AD7019D
:101290008C91082E000C990B0E94644E892B99F7B3
:1012A0006701B1E0CB1AD108750105C0F701808351
:1012B000C70101967C019FEFC91AD90A84CFD701D3
:1012C0001C92BE016F5F7D4FC8010E94165209C07B
:1012D000C75EDC4FE881F981C951D340349709F4E6
:1012E00010C2D2011A968D919C911B97059709F017
:1012F00044C1C8010E940D4FC15EDC4FE881F981F5
:10130000CF51D340EF2B81F4A401B101CE0101965E
:101310000E94B202BC01CB5EDC4F88819981C5512D
:10132000D3400E94EC0354C02114310409F41DC1C0
:10133000D401ED90FC90B701CB5EDC4F88819981A0
:10134000C551D3400E94FF028C01892B09F047C090
:10135000F7018081882309F4D8C1833209F4D5C10B
:1013600063EC74E0CB5EDC4F88819981C551D3403A
:101370000E94FF028C01892B01F1FFEF2F1A3F0A17
:101380007101EE0CFF1CB701C4010E94CB504C014F
:1013900022E0E21AF108FC01EE0DFF1D929182910C
:1013A00093838283E815F905C9F783EC94E00E94E2
:1013B000BB51D4018D939C9312C0A7016BEC74E0D8
:1013C000CB5EDC4F88819981C551D3400E94FC04DB
:1013D000C95EDC4F99838883C751D34096C1CB5EE9
:1013E000DC4FE881F981C551D34080859185009714
:1013F00011F00E940D4F7401A40180E090E020E004
:1014000030E0FA01A191B191AF01FD0101900020FE
:10141000E9F73197EA1BFB0B8E0F9F1F2F5F3F4FA2
:101420002216330671F78F3F91405CF065EE74E051
:10143000CB5EDC4F88819981C551D3400E94020464
:10144000C7CFA401B101CE0101960E94B2020E9451
:10145000BB51CB5EDC4FA881B981C551D3401896F2
:101460008C93189719969C9319971C962D913C91E3
:101470001D97232BC9F09F938F9311968C911197F1
:101480008F938C918F9387E195E09F938F938091B9
:1014900018158F93809117158F930E945F520FB686
:1014A000F894DEBF0FBECDBFD80114962D913C91AC
:1014B00015971296ED91FC911397A401B101CB5EA3
:1014C000DC4F88819981C551D3400995C95EDC4FB5
:1014D00099838883C751D340CB5EDC4FE881F98183
:1014E000C551D34084859585892B49F112850385A3
:1014F000A401B101CE0101960E94B2020F931F9385
:101500009F938F93CB5EDC4FA881B981C551D340A7
:1015100011968C9111978F938C918F9381E295E026
:101520009F938F93809118158F93809117158F93A8
:101530000E945F520FB6F894DEBF0FBECDBFC95EEA
:10154000DC4F88819981C751D340892B09F0DDC0D8
:1015500000E010E0D7018D919D917D010E940D4F1B
:101560000F5F1F4F20163106A9F7C4010E940D4FCF
:10157000812C912C212C312CDDCAC35EDC4F88815B
:101580009981CD51D3400497F20126853785029782
:1015900008F04BC0232BB9F4FFEF2F1A3F0A71015B
:1015A000EE0CFF1CB701C4010E94CB504C01E80EA9
:1015B000F91EF701329711830083D2011F961C9206
:1015C0001E921E97B7CAF8018081882309F4B2CA17
:1015D000BE016F5F7D4FC8010E940D026C01710159
:1015E000EE0CFF1C5701F2E0AF0EB11CC114D10488
:1015F00009F449C02FEF221A320AB501C4010E9432
:10160000CB504C01CE018F5F9D4F0E94BB51F40126
:10161000EE0DFF1D91838083BE016F5F7D4FC6017C
:101620000E940D026C017501DDCF232BB1F1BE01CB
:101630006F5F7D4FC8010E940D026C017101EE0CBD
:10164000FF1C570182E0A80EB11CC114D104D9F0CF
:101650009FEF291A390AB501C4010E94CB504C01F1
:10166000CE018F5F9D4F0E94BB51F401EE0DFF1D17
:1016700091838083BE016F5F7D4FC6010E940D0282
:101680006C017501DECFC8010E940D4FC15FDC4FB8
:1016900019821882CF50D3404DCA7101A1E0EA1AD5
:1016A000A0E8FA0AEE0CFF1CE80CF91CF701808197
:1016B0009181FC0101900020E9F731976F01C81A70
:1016C000D90AF80101900020E9F731975F01A01ACB
:1016D000B10A36016A0C7B1CB3016F5F7F4F0E9419
:1016E000CB50D7018D939C93A501B8018C0D9D1D06
:1016F0000E94D551F70180819181FC01E60DF71D13
:101700001082C8010E940D4F15CA740100E010E05C
:101710002016310649F0D7018D919D917D010E94DF
:101720000D4F0F5F1F4FF4CFC4010E940D4FC95ED4
:10173000DC4F88819981C751D340CC5DDC4F0FB617
:10174000F894DEBF0FBECDBFDF91CF911F910F91F7
:10175000FF90EF90DF90CF90BF90AF909F908F90D1
:101760007F906F905F904F903F902F900895AF9231
:10177000BF92CF92DF92EF92FF920F931F93CF937E
:10178000DF938C017B015A0169010E94FF02892BC2
:1017900081F0A70165E375E0C801DF91CF911F914A
:1017A0000F91FF90EF90DF90CF90BF90AF900C948F
:1017B000FC0488E090E00E94754EEC01C7010E9495
:1017C000BB5199838883BB82AA82DD82CC82F801D7
:1017D000868197819F838E83D783C68380E090E044
:1017E000DF91CF911F910F91FF90EF90DF90CF90FD
:1017F000BF90AF900895EF92FF920F931F93CF93F6
:10180000DF93CDB7DEB7A0970FB6F894DEBF0FBE5B
:10181000CDBF7C015F934F937F936F938E010F5FDA
:101820001F4F1F930F930E94A152B801C7010E943E
:10183000EC030F900F900F900F900F900F90A096C9
:101840000FB6F894DEBF0FBECDBFDF91CF911F91D1
:101850000F91FF90EF9008954F925F926F927F9259
:101860008F929F92AF92BF92CF92DF92EF92FF92B0
:101870000F931F93CF93DF93CDB7DEB7DA950FB6F3
:10188000F894DEBF0FBECDBF7C015B013A011A8226
:101890001982FE0133968EEFDF011D928A95E9F7DA
:1018A0008A010E5F1F4F6B01B1E0CB1AD108623085
:1018B00071051CF466E971E1CCC06230710509F470
:1018C000CCC0DA0112968D909C901397F401808120
:1018D0008D3209F0C2C062E575E0C4010E940D526C
:1018E000892B51F46501F2E0CF1AD10883010C5F16
:1018F0001F4F28E53DE0B3C06EE575E0C4010E94CE
:101900000D52892B51F4650182E0C81AD108830178
:101910000C5F1F4F2CE63DE0A2C067E675E0C401F6
:101920000E940D52892B09F098C02501A2E04A1AA5
:10193000510824E63DE042E050E0B201C3010496C4
:101940000E94304B6801A12CB12C8E010F5F1F4FFC
:10195000A114B10481F0F6018281938160817181CB
:10196000DC013C91FB012081321305C00E940D5225
:10197000892B09F461C0D60112968D909C90139723
:10198000C4010E946F3B3C018981882389F0F801E2
:1019900001900020E9F7CF01801B910B8F3F91054B
:1019A00011F008F03EC061E974E1C8010E94F751EE
:1019B0006114710481F0F80101900020E9F7CF0172
:1019C000801B910B8F3F910509F058F569E574E094
:1019D000C8010E94F751F80101900020E9F7319702
:1019E000CF01801B910BF40101900020E9F73197A2
:1019F000E819F909E80FF91FEF3FF10509F088F43C
:101A0000B401C8010E94F7516728B1F0F8010190B4
:101A10000020E9F7CF01801B910B8F3F910539F032
:101A200030F06FE675E0C7010E9402042AC067E546
:101A300074E0C8010E94F751BFEFAB1ABB0AE2E0A5
:101A4000CE0ED11CA414B5040CF482CFBE016F5F7E
:101A50007F4FC7010E94EC0314C024E63DE042E042
:101A600050E0B601C8010E94304BA801B601CE017A
:101A700001960E94B202BC01C7010E94EC0380E003
:101A800090E0D3950FB6F894DEBF0FBECDBFDF91C7
:101A9000CF911F910F91FF90EF90DF90CF90BF906B
:101AA000AF909F908F907F906F905F904F90089530
:101AB000FB0160817181FC01808191810E940D5246
:101AC0009195819591090895FB0160817181FC01D7
:101AD000808191810C940D520F931F93CF93DF93CC
:101AE0008B01FC01808191810E94464EEC01F8013E
:101AF000808191810E94464E9E01281B390BC901AD
:101B0000181619065CF021E030E0892B11F420E072
:101B100030E088279927821B930B02C081E090E078
:101B2000DF91CF911F910F9108952F923F924F9285
:101B30005F926F927F928F929F92AF92BF92CF925D
:101B4000DF92EF92FF920F931F93CF93DF93CDB766
:101B5000DEB7CC50D2400FB6F894DEBF0FBECDBF7B
:101B60002C018B011A011A8219828EEFFE01339625
:101B7000DF01282F1D922A95E9F73E0131E0630E1F
:101B8000731EF30111921192DF011D928A95E9F7FC
:101B9000643071052CF44FE755E06EEA75E02DC016
:101BA000FA01E480F580C7010E94F53F1816190676
:101BB0000CF5BC01C7010E94CC3FC95FDD4F998382
:101BC0008883C750D240D1011696ED90FC901797AC
:101BD000F7018081853641F460E07DE0C7010E9415
:101BE0000D52892B09F493C0C7010E94F53F1816C6
:101BF00019063CF0A7016BEC75E0C2010E94FC04E1
:101C00005CC2BC01C7010E94CC3FC75FDD4F998316
:101C10008883C950D240C95FDD4F28813981C750C0
:101C2000D24037FF80C0C75FDD4F88819981C9509E
:101C3000D24097FF78C0610198E0C90ED11C5801CD
:101C4000AA0CBB1CA20CB31CCA14DB0409F470C0A0
:101C5000D601ED90FD906D01C7010E946F3B4C01D4
:101C6000F3018081882381F001900020E9F7CF0102
:101C7000861997098F3F910511F008F00EC261E9AE
:101C800074E1C3010E94F7518114910489F0F301BA
:101C900001900020E9F7CF01861997098F3F910540
:101CA00011F008F0FAC169E574E0C3010E94F75130
:101CB000F30101900020E9F73197CF0186199709C8
:101CC000F70101900020E9F73197EE19FF09E80FBD
:101CD000F91FEF3FF10511F008F0DFC1B701C301B3
:101CE0000E94F751892809F4AFCFF3010190002039
:101CF000E9F7CF01861997098F3F910511F008F098
:101D0000CCC167E574E0C3010E94F7519DCF8824E0
:101D10008394912C2FEF3FE7C75FDD4F39832883F2
:101D2000C950D24002C0812C912CE12CF12C05C06D
:101D3000812C912CEE24E394F12CCE010196CF5FFF
:101D4000DD4F99838883C150D240BC01D1011296E6
:101D50008D919C9113970E940D02CD5FDD4F998369
:101D60008883C350D240000F111FF101E00FF11F13
:101D7000C55FDD4FF983E883CB50D240A12CB12C55
:101D80009E012F5F3F4F6901CD5FDD4F88819981B3
:101D9000C350D240892B09F409C1C95FDD4FA88126
:101DA000B981C750D240AA16BB0674F0C75FDD4F99
:101DB000E881F981C950D240EA15FB050CF061C0F9
:101DC0008114910409F05DC0CE0101960E946F3B21
:101DD0008C01D3018C91882389F0F30101900020BC
:101DE000E9F7CF01861997098F3F910511F008F0A7
:101DF00054C161E974E1C3010E94F7510115110555
:101E000089F0F30101900020E9F7CF0186199709C5
:101E10008F3F910511F008F040C169E574E0C301FE
:101E20000E94F751F30101900020E9F73197CF01AB
:101E300086199709F60101900020E9F73197EC190E
:101E4000FD09E80FF91FEF3FF10511F008F025C17A
:101E5000B601C3010E94F751012B09F494C0F301AC
:101E600001900020E9F7CF01861997098F3F91056E
:101E700011F008F012C167E574E0C3010E94F75148
:101E800082C0EF2809F07CC0F1013896CB5FDD4FAE
:101E9000F983E883C550D240CB5FDD4F288139817B
:101EA000C550D240C55FDD4F88819981CB50D2406B
:101EB0002817390709F464C0D9010D911D91CB5F32
:101EC000DD4FB983A883C550D240C8010E946F3B43
:101ED0007C01F3018081882381F001900020E9F7E3
:101EE000CF01861997098F3F910511F008F0D5C0F1
:101EF00061E974E1C3010E94F751E114F10489F032
:101F0000F30101900020E9F7CF01861997098F3F6F
:101F1000910511F008F0C1C069E574E0C3010E94A9
:101F2000F751F30101900020E9F73197CF018619AD
:101F30009709F80101900020E9F73197E01BF10BB8
:101F4000E80FF91FEF3FF10511F008F0A6C0B80146
:101F5000C3010E94F751EF2809F49ECFF3010190CD
:101F60000020E9F7CF01861997098F3F910511F0FD
:101F700008F093C067E574E0C3010E94F7518CCF6D
:101F8000EE24E394F12CFFEFAF1ABF0AB601CD5F48
:101F9000DD4F88819981C350D2400E940D02CD5FF0
:101FA000DD4F99838883C350D240EECEC95FDD4FA9
:101FB00028813981C750D240A216B30644F4D1011A
:101FC00014964D915C91159769EE75E016CEEF2849
:101FD00009F06FC0B8E02B0E311CC55FDD4FE88102
:101FE000F981CB50D240E215F30509F462C0D1016A
:101FF0000D911D911D01C8010E946F3B7C01F301F1
:102000008081882381F001900020E9F7CF018619B3
:1020100097098F3F910511F008F03FC061E974E125
:10202000C3010E94F751E114F10481F0F301019022
:102030000020E9F7CF01861997098F3F910509F034
:1020400060F569E574E0C3010E94F751F301019066
:102050000020E9F73197CF0186199709F80101901F
:102060000020E9F73197E01BF10BE80FF91FEF3F74
:10207000F10509F090F4B801C3010E94F751EF286F
:1020800009F4ABCFF30101900020E9F7CF018619E5
:1020900097098F3F910539F030F06FE675E0C20186
:1020A0000E9402040AC067E574E0C3010E94F75170
:1020B00094CFB301C2010E94EC03C45FDD4F0FB6A1
:1020C000F894DEBF0FBECDBFDF91CF911F910F916E
:1020D000FF90EF90DF90CF90BF90AF909F908F9048
:1020E0007F906F905F904F903F902F9008952F9228
:1020F0003F924F925F926F927F928F929F92AF9298
:10210000BF92CF92DF92EF92FF920F931F93CF93E4
:10211000DF93CDB7DEB7C250D1400FB6F894DEBF23
:102120000FBECDBF7C018B013A011A821982FE01DC
:1021300033968EEFDF011D928A95E9F762307105C3
:102140002CF449E056E06EEA75E022C0FA01C28044
:10215000D380C6010E94F53F18161906B4F4BC01DD
:10216000C6010E94CC3F1C01000F111FC301800F4C
:10217000911FCF5FDE4F99838883C150D140A12C3E
:10218000B12C8E010F5F1F4F3EC0A6016BEC75E0B6
:10219000C7010E94FC047EC0F201C190D1902F01C2
:1021A000C6010E946F3B4C018981811134C08114AA
:1021B000910409F041C0F80101900020E9F731973E
:1021C000CF01801B910BF60101900020E9F73197B8
:1021D000EC19FD09E80FF91FEF3FF10511F008F0C8
:1021E00047C0B601C8010E94F7518928B1F5CF5FF9
:1021F000DE4FA881B981C150D140A415B50561F663
:10220000FFEFAF1ABF0AA214B304F4F5230194E060
:10221000490E511CECCFF80101900020E9F7CF01E5
:10222000801B910B8F3F910509F010F561E974E176
:10223000C8010E94F751BBCFF80101900020E9F7D7
:10224000CF01801B910B8F3F910509F088F469E560
:1022500074E0C8010E94F751AECFF8010190002050
:10226000E9F7CF01801B910B8F3F910539F030F0DA
:102270006FE675E0C7010E9402040CC067E574E0D8
:10228000C8010E94F751B3CFBE016F5F7F4FC701F6
:102290000E94EC03CE5FDE4F0FB6F894DEBF0FBE98
:1022A000CDBFDF91CF911F910F91FF90EF90DF9005
:1022B000CF90BF90AF909F908F907F906F905F90E6
:1022C0004F903F902F9008952F923F924F925F92A0
:1022D0006F927F928F929F92AF92BF92CF92DF9236
:1022E000EF92FF920F931F93CF93DF93CDB7DEB79B
:1022F000C250D2400FB6F894DEBF0FBECDBF7C01F6
:102300005A011A8219828EEFFE013396DF01982F4F
:102310001D929A95E9F78E010F5F1E4FF8011192F9
:102320001192DF011D928A95E9F76430710529F059
:1023300045E256E06EEA75E01BC0FA01C480D58024
:10234000C6010E94F53F181619067CF4BC01C601AF
:102350000E94CC3F2C01D5011696CD90DC901797AA
:10236000F6018081853679F407C0A6016BEC75E033
:10237000C7010E94FC04AAC060E07DE0C6010E9483
:102380000D52892B99F0C6010E94F53F18161906C7
:1023900064F7BC01C6010E94CC3FCF5FDD4F99833B
:1023A0008883C150D240212C312C03C02224239495
:1023B000312CCE0101966C01BC01D50112968D9194
:1023C0009C9113970E940D024C01A12CB12C8114F9
:1023D000910409F477C0A414B5040CF46AC0211464
:1023E000310451F4CF5FDD4FE881F981C150D24013
:1023F000EA15FB050CF45DC0C6010E946F3B3C0171
:10240000D8018C91882389F0F80101900020E9F728
:10241000CF01801B910B8F3F910511F008F03EC05A
:1024200061E974E1C8010E94F7516114710481F0FF
:10243000F80101900020E9F7CF01801B910B8F3F3D
:10244000910509F058F569E574E0C8010E94F7515B
:10245000F80101900020E9F73197CF01801B910B23
:10246000F60101900020E9F73197EC19FD09E80F1A
:10247000F91FEF3FF10509F088F4B601C8010E9489
:10248000F7516728B1F0F80101900020E9F7CF017A
:10249000801B910B8F3F910539F030F06FE675E0AE
:1024A000C7010E94020412C067E574E0C8010E94DF
:1024B000F751BFEFAB1ABB0AB601C4010E940D026F
:1024C0004C0185CFB801C7010E94EC03CE5FDD4F00
:1024D0000FB6F894DEBF0FBECDBFDF91CF911F9135
:1024E0000F91FF90EF90DF90CF90BF90AF909F90B3
:1024F0008F907F906F905F904F903F902F900895B6
:102500002F923F924F925F926F927F928F929F9203
:10251000AF92BF92CF92DF92EF92FF920F931F93F1
:10252000CF93DF93CDB7DEB7C450D2400FB6F89447
:10253000DEBF0FBECDBF7C01CF5FDD4F5983488327
:10254000C150D2401A8219828EEFFE013396DF010C
:10255000982F1D929A95E9F78E010F5F1E4FF80193
:1025600011921192DF011D928A95E9F7643071058D
:1025700029F04CE356E06EEA75E014C0CF5FDD4F02
:10258000E881F981C150D240A280B38040E050E0A0
:10259000B501C7010E9423036C01009739F4A5011E
:1025A0006EE974E0C7010E94FC0426C1DC011296AA
:1025B0008D919C911397892B69F441E050E0B5010E
:1025C000C7010E9423036C01892B21F4A50165E555
:1025D00076E0E8CFCF5FDD4FE881F981C150D2408E
:1025E000A480B580C5010E94F53F18161906A4F411
:1025F000BC01C5010E94CC3F1C01CE0101965C01CB
:10260000BC01D60112968D919C9113970E940D02E8
:102610004C01412C512C51C0A5016BEC75E0C2CF8F
:102620004214530409F072C0CF5FDD4FE881F98195
:10263000C150D24066807780C3010E946F3BCD5F5E
:10264000DD4F99838883C350D240D8018C9181118A
:1026500039C0CD5FDD4FE881F981C350D240EF2B07
:1026600009F042C0F80101900020E9F73197CF014D
:10267000801B910BF30101900020E9F73197E619D7
:10268000F709E80FF91FEF3FF10511F008F097C0C7
:10269000B301C8010E94F751CD5FDD4F8881998158
:1026A000C350D240892B09F079C0BFEF4B1A5B0AA7
:1026B000B501C4010E940D024C018114910409F07E
:1026C000AFCF80C0F80101900020E9F7CF01801B57
:1026D000910B8F3F910511F008F071C061E974E131
:1026E000C8010E94F751B5CFF80101900020E9F729
:1026F000CF01801B910B8F3F910511F008F05FC057
:1027000069E574E0C8010E94F751ACCFC5010E9491
:102710006F3B3C01D8018C91882389F0F80101902E
:102720000020E9F7CF01801B910B8F3F910511F03D
:1027300008F045C061E974E1C8010E94F7516114D5
:10274000710481F0F80101900020E9F7CF01801BAE
:10275000910B8F3F910509F090F569E574E0C80190
:102760000E94F751F80101900020E9F73197CF015D
:10277000801B910BF50101900020E9F73197EA19D0
:10278000FB09E80FF91FEF3FF10509F0C0F4B501AF
:10279000C8010E94F751672809F487CFF80101901A
:1027A0000020E9F7CF01801B910B8F3F910509F0C5
:1027B00030F467E574E0C8010E94F75176CF6FE608
:1027C00075E007C037FC03C04214530434F464E6D8
:1027D00076E0C7010E9402040FC0F601608171819A
:1027E00020E030E0A801C7010E946503009721F4B2
:1027F000B801C7010E94EC03CC5FDD4F0FB6F8941F
:10280000DEBF0FBECDBFDF91CF911F910F91FF9023
:10281000EF90DF90CF90BF90AF909F908F907F9080
:102820006F905F904F903F902F900895EF92FF929E
:102830000F931F93CF93DF93CDB7DEB7DA950FB623
:10284000F894DEBF0FBECDBF7C016230710539F058
:102850004CE756E06EEA75E00E94FC041AC0BE0127
:102860006F5F7F4FFA01828193810E940D0200E029
:1028700010E0009741F00F5F1F4FBE016F5F7F4F69
:102880000E940D02F6CFA80169E876E0C7010E9418
:10289000FB0BD3950FB6F894DEBF0FBECDBFDF9113
:1028A000CF911F910F91FF90EF900895AF92BF923B
:1028B000CF92DF92EF92FF920F931F93CF93DF930C
:1028C000CDB7DEB7DA950FB6F894DEBF0FBECDBF39
:1028D0008C015A011A821982FE0133968EEFDF01B4
:1028E0001D928A95E9F76330710541F04CE856E096
:1028F0006EEA75E0C8010E94FC0432C0BE016F5F41
:102900007F4FFA01828193810E940D027C01C12CCC
:10291000D12CE114F104F9F0BE016F5F7F4FD501B6
:1029200014968D919C9115970E94233F18161906B5
:102930003CF4A60169E876E0C8010E94FB0B10C0D8
:10294000BFEFCB1ADB0ABE016F5F7F4FC7010E944A
:102950000D027C01DECF61EA76E0C8010E94EC0343
:10296000D3950FB6F894DEBF0FBECDBFDF91CF91E8
:102970001F910F91FF90EF90DF90CF90BF90AF909D
:1029800008953F924F925F926F927F928F929F92A3
:10299000AF92BF92CF92DF92EF92FF920F931F936D
:1029A000CF93DF93CDB7DEB7D2500FB6F894DEBF2A
:1029B0000FBECDBF5C011A8219828EEFFE013396E5
:1029C000DF01282F1D922A95E9F78E010F5F1E4F18
:1029D000F80111921192DF011D928A95E9F7623098
:1029E000710541F044EA56E06EEA75E0C5010E94C7
:1029F000FC0472C0FA0182819381DC012C912111C7
:102A000003C066E971E165C0B8010E940D024C0186
:102A1000E12CF12C9DE7492E2BE7322E30E2532E8C
:102A20008114910409F44EC0F80101900020E9F7E7
:102A300031973F01601A710AC8010E946F3B6C0117
:102A40009C01220F331FC3010196820F931FA70120
:102A50004F5F5F4FBE016F5F7F4F860F971F0E94D2
:102A6000DE51D801E1E0F0E0EC0FFD1FEC0DFD1DA3
:102A7000C6016C0C7D1C8615970524F42D912193BD
:102A80000196F9CFC114D10449F0E1E0F0E0EC0F78
:102A9000FD1FE80FF91F408239820196E1E0F0E066
:102AA000EC0FFD1FE80FF91F50826C0C7D1CFFEF2F
:102AB0006F1A7F0AE60CF71CB801C4010E940D02D0
:102AC0004C01AECFFE01EE0DFF1D1082BE016F5F07
:102AD0007F4FC5010E94EC03DE5F0FB6F894DEBFA6
:102AE0000FBECDBFDF91CF911F910F91FF90EF905F
:102AF000DF90CF90BF90AF909F908F907F906F901E
:102B00005F904F903F9008950F931F93643071052D
:102B100041F042EB56E06EEA75E01F910F910C9484
:102B2000FC04FA01268137814481558162817381D9
:102B300001E010E00E94E3251F910F9108954F924C
:102B40005F926F927F928F929F92AF92BF92CF923D
:102B5000DF92EF92FF920F931F93CF93DF93CDB746
:102B6000DEB7DA950FB6F894DEBF0FBECDBF7C019D
:102B70003B011A821982FE0133968EEFDF011D920E
:102B80008A95E9F72A01B2E04B0E511CAA24A394BE
:102B9000B12C8E010F5F1F4FA614B7040CF064C058
:102BA000F201C190D1902F01C6010E946F3B4C01F0
:102BB0008981882389F0F80101900020E9F7CF018D
:102BC000801B910B8F3F910511F008F03EC061E929
:102BD00074E1C8010E94F7518114910481F0F80159
:102BE00001900020E9F7CF01801B910B8F3F9105E9
:102BF00009F058F569E574E0C8010E94F751F80141
:102C000001900020E9F73197CF01801B910BF6016D
:102C100001900020E9F73197EC19FD09E80FF91F41
:102C2000EF3FF10509F088F4B601C8010E94F751A1
:102C30008928B1F0F80101900020E9F7CF01801B4D
:102C4000910B8F3F910539F030F06FE675E0C701C9
:102C50000E9402040DC067E574E0C8010E94F751AC
:102C6000FFEFAF1ABF0A98CFB801C7010E94EC036B
:102C7000D3950FB6F894DEBF0FBECDBFDF91CF91D5
:102C80001F910F91FF90EF90DF90CF90BF90AF908A
:102C90009F908F907F906F905F904F9008956F926C
:102CA0007F928F929F92AF92BF92CF92DF92EF92DC
:102CB000FF920F931F93CF93DF93CDB7DEB7D25020
:102CC0000FB6F894DEBF0FBECDBF5C011A82198229
:102CD0008EEFFE013396DF01982F1D929A95E9F74A
:102CE0008E010F5F1E4FF80111921192DF011D92AC
:102CF0008A95E9F7CB010297029740F04CEC56E039
:102D00006EEA75E0C5010E94FC046AC0633071057B
:102D100021F4FA01C480D58004C081E9C82E84E181
:102D2000D82ECE0101967C01BC01DA0112968D915C
:102D30009C9113970E940D024C01612C712C8114FF
:102D4000910409F444C0F80101900020E9F731979B
:102D5000CF01801B910BF70101900020E9F731971B
:102D6000EE19FF09E80FF91FEF3FF10509F0F8F43C
:102D7000B701C8010E94F751F80101900020E9F75E
:102D80003197CF01801B910B3801680E791EF60137
:102D900020812223B1F001900020E9F73197EC194E
:102DA000FD09E80FF91FEF3FF10539F030F06FE64C
:102DB00075E0C5010E94020413C0B601C8010E945B
:102DC000F751B701C4010E940D024C01B8CF611444
:102DD000710411F0D3011C92B801C5010E94EC03EB
:102DE000DE5F0FB6F894DEBF0FBECDBFDF91CF918F
:102DF0001F910F91FF90EF90DF90CF90BF90AF9019
:102E00009F908F907F906F9008952F923F924F9256
:102E10005F926F927F928F929F92AF92BF92CF926A
:102E2000DF92EF92FF920F931F93CF93DF93CDB773
:102E3000DEB7C850D2400FB6F894DEBF0FBECDBF8C
:102E40007C015B013A011A8219828EEFFE013396F2
:102E5000DF01282F1D922A95E9F78E010F5F1E4F83
:102E6000F80111921192DF011D928A95E9F7633002
:102E700071052CF443EE56E06EEA75E028C0FA01C5
:102E8000C480D580D6018C91853639F460E07DE030
:102E9000C6010E940D52892BF1F0C6010E94F53F38
:102EA000181619068CF4BC01C6010E94CC3FCB5FFA
:102EB000DD4F99838883C550D240CD5FDD4F1982A5
:102EC0001882C350D24017C0A6016BEC75E0C70151
:102ED0000E94FC04A7C1E1E0F0E0CD5FDD4FF98383
:102EE000E883C350D2402FEF3FEFCB5FDD4F3983F4
:102EF0002883C550D240CE0101966C01BC01D3019C
:102F000012968D919C9113970E940D024C01AA0C70
:102F1000BB1CF301EA0DFB1DC95FDD4FF983E8839C
:102F2000C750D240412C512C212C312C81149104BA
:102F300009F4F7C04114510409F091C0CD5FDD4F91
:102F400028813981C350D240232B09F088C0CB5F40
:102F5000DD4F88819981C550D2408215930509F0D3
:102F60007EC0D3011696CF5FDD4FB983A883C150D1
:102F7000D240CF5FDD4FE881F981C150D240C95FB7
:102F8000DD4F28813981C750D240E217F30709F499
:102F900066C0A190B190CF5FDD4FF983E883C15047
:102FA000D240C5010E946F3B2C01D8018C9188232F
:102FB00089F0F80101900020E9F7CF01801B910B07
:102FC0008F3F910511F008F01DC161E974E1C8015E
:102FD0000E94F7514114510489F0F801019000203A
:102FE000E9F7CF01801B910B8F3F910511F008F09D
:102FF00009C169E574E0C8010E94F751F801019028
:103000000020E9F73197CF01801B910BF50101906A
:103010000020E9F73197EA19FB09E80FF91FEF3FA4
:10302000F10511F008F0EEC0B501C8010E94F7519A
:10303000452889F0F80101900020E9F7CF01801BB5
:10304000910B8F3F910511F008F0DCC067E574E04B
:10305000C8010E94F75144244394512C8ACFC601E1
:103060000E946F3B5C01F8018081882381F0019010
:103070000020E9F7CF01801B910B8F3F910511F0E4
:1030800008F0C0C061E974E1C8010E94F751A114C1
:10309000B10489F0F80101900020E9F7CF01801B0D
:1030A000910B8F3F910511F008F0ACC069E574E019
:1030B000C8010E94F751F80101900020E9F731970B
:1030C000CF01801B910BF60101900020E9F73197A9
:1030D000EC19FD09E80FF91FEF3FF10511F008F0B9
:1030E00091C0B601C8010E94F751AB2889F0F801E0
:1030F00001900020E9F7CF01801B910B8F3F9105D4
:1031000011F008F07FC067E574E0C8010E94F75134
:10311000FFEF2F1A3F0AB601C4010E940D024C01B5
:1031200005CF452821F426E0620E711C34C0CD5F26
:10313000DD4F88819981C350D240892B09F46EC03C
:10314000F2CFF301C190D1903F01C6010E946F3BC5
:103150005C01D8018C91811128C0A114B104B1F592
:10316000F80101900020E9F73197CF01801B910B06
:10317000F60101900020E9F73197EC19FD09E80FFD
:10318000F91FEF3FF10509F0E8F5B601C8010E940B
:10319000F751AB2861F5C95FDD4FA881B981C750F0
:1031A000D2406A167B0669F639C0F801019000200A
:1031B000E9F7CF01801B910B8F3F910509F010F5C6
:1031C00061E974E1C8010E94F751C7CFF80101908D
:1031D0000020E9F7CF01801B910B8F3F910509F08B
:1031E00088F469E574E0C8010E94F751B9CFF8018D
:1031F00001900020E9F7CF01801B910B8F3F9105D3
:1032000039F030F06FE675E0C7010E9402040AC091
:1032100067E574E0C8010E94F751BDCFB801C7014E
:103220000E94EC03C85FDD4F0FB6F894DEBF0FBEFF
:10323000CDBFDF91CF911F910F91FF90EF90DF9065
:10324000CF90BF90AF909F908F907F906F905F9046
:103250004F903F902F900895CF92DF92EF92FF9280
:103260000F931F93CF93DF93CDB7DEB7DA950FB6E9
:10327000F894DEBF0FBECDBF8C016A011A8219829D
:10328000FE0133968EEFDF011D928A95E9F7CB019F
:103290000297029728F04CE057E06EEA75E02AC0EA
:1032A0006230710521F4FA01628173813EC0DA0156
:1032B0001496ED90FC901597F7018081853639F4CE
:1032C00060E07DE0C7010E940D52892BB9F0C70173
:1032D0000E94F53F1816190654F4BC01C7010E945C
:1032E000CC3F7C0197FF0DC066E971E11EC0A701CC
:1032F0006BEC75E0C8010E94FC0429C0EE24EA943E
:10330000FE2CBE016F5F7F4FD60112968D919C916E
:1033100013970E940D02C12CD12C009799F0CE1466
:10332000DF0439F4BE016F5F7F4FC8010E94EC03D8
:103330000EC0BE016F5F7F4F0E940D02BFEFCB1A20
:10334000DB0AEBCFEF20E09469F380E090E0D395C7
:103350000FB6F894DEBF0FBECDBFDF91CF911F91A6
:103360000F91FF90EF90DF90CF9008952F923F92B2
:103370004F925F926F927F928F929F92AF92BF9285
:10338000CF92DF92EF92FF920F931F93CF93DF9331
:10339000CDB7DEB7C250D2400FB6F894DEBF0FBE35
:1033A000CDBF7C013B012A011A821982FE013396AE
:1033B0008EEFDF011D928A95E9F76230710544F4C2
:1033C00040E257E06EEA75E0C7010E94FC04BFC00E
:1033D0005E01E1E0AE0EBE1EB501DA0112968D91DE
:1033E0009C9113970E940D024C01120132E0C32EF2
:1033F000D12C8E010F5F1F4F8114910409F488C0F6
:10340000C614D7046CF4F1016481758120E030E0CA
:10341000A501C7010E946503009709F46DC097C01C
:10342000C5010E946F3BCF5FDD4F99838883C150F8
:10343000D2408981882389F0F80101900020E9F7C2
:10344000CF01801B910B8F3F910511F008F049C00F
:1034500061E974E1C8010E94F751CF5FDD4F8881B7
:103460009981C150D240892B81F0F8010190002050
:10347000E9F7CF01801B910B8F3F910509F088F58B
:1034800069E574E0C8010E94F751F801019000203D
:10349000E9F73197CF01801B910BF50101900020D6
:1034A000E9F73197EA19FB09E80FF91FEF3FF1053A
:1034B00009F0B8F4B501C8010E94F751CF5FDD4FA4
:1034C000A881B981C150D240AB2BB1F0F801019075
:1034D0000020E9F7CF01801B910B8F3F910539F058
:1034E00030F06FE675E0C7010E94020430C067E566
:1034F00074E0C8010E94F751BFEFCB1ADB0AB50197
:10350000C4010E940D024C01E2E02E0E311C74CF6A
:10351000C601880F991F480E591EC614D7048CF493
:10352000D2016D917D912D0120E030E046E951E11D
:10353000C7010E946503009751F4BFEFCB1ADB0A65
:10354000ECCFBE016F5F7F4FC7010E94EC03CE5FDF
:10355000DD4F0FB6F894DEBF0FBECDBFDF91CF9128
:103560001F910F91FF90EF90DF90CF90BF90AF90A1
:103570009F908F907F906F905F904F903F902F9093
:1035800008954F925F926F927F928F929F92AF9227
:10359000BF92CF92DF92EF92FF920F931F93CF9340
:1035A000DF93CDB7DEB7DA950FB6F894DEBF0FBE66
:1035B000CDBF7C016B014A011A821982FE0133964C
:1035C0008EEFDF011D928A95E9F76230710544F4B0
:1035D0004BE357E06EEA75E0C7010E94FC0495C01A
:1035E000FA01A280B38040E050E0B501C7010E941B
:1035F00023038E010F5F1F4F009741F0DC011296ED
:103600006D917C911397C8010E9416523401B4E069
:103610006B0E711CCC0CDD1C24014C0C5D1C641465
:10362000750409F462C0F301C190D1903F01C60155
:103630000E946F3B4C018981882389F0F801019039
:103640000020E9F7CF01801B910B8F3F910511F00E
:1036500008F03FC061E974E1C8010E94F75181148C
:10366000910481F0F80101900020E9F7CF01801B5F
:10367000910B8F3F910509F060F569E574E0C80191
:103680000E94F751F80101900020E9F73197CF012E
:10369000801B910BF60101900020E9F73197EC199E
:1036A000FD09E80FF91FEF3FF10509F090F4B601AD
:1036B000C8010E94F751892809F4B1CFF80101909F
:1036C0000020E9F7CF01801B910B8F3F910539F066
:1036D00030F06FE675E0C7010E94020416C067E58E
:1036E00074E0C8010E94F7519ACF20E030E0A801B1
:1036F000B501C7010E946503892B29F4B801C701F0
:103700000E94EC0302C080E090E0D3950FB6F894DD
:10371000DEBF0FBECDBFDF91CF911F910F91FF9004
:10372000EF90DF90CF90BF90AF909F908F907F9061
:103730006F905F904F9008954F925F926F927F923B
:103740008F929F92AF92BF92CF92DF92EF92FF92B1
:103750000F931F93CF93DF93CDB7DEB7DA950FB6F4
:10376000F894DEBF0FBECDBF8C015B013A011A8217
:103770001982FE0133968EEFDF011D928A95E9F7DB
:10378000CB010297029728F04DE557E06EEA75E00D
:1037900027C2F801C680D780DA011296ED90FC901E
:1037A0001397F7014080F0E74F1209C067EA77E00E
:1037B000C7010E940D52892B09F43EC205C0512C4D
:1037C0006330710569F406C0E3E0AE16B10409F098
:1037D000D0C1512CD30114968D909C90159704C0A4
:1037E0002CE6822E2EE0922EB6E74B1203C06DEA35
:1037F00078E005C0E7E64E12AAC06DEA77E0C7019F
:103800000E940D52892B09F0E6C1D8011496CD9083
:10381000DC901597B7E64B120EC06DEA77E0C70152
:103820000E940D52892B39F4F6018481958100970D
:1038300011F06C01F9CFD601CD90DC90FE013196EC
:103840007F01C114D10409F47EC0D601AD90BC90B3
:10385000B501C4010E94233F181619060CF05BC085
:10386000C5010E946F3B5C018981882389F0F701C3
:1038700001900020E9F7CF018E199F098F3F910534
:1038800011F008F005C161E974E1C7010E94F75128
:10389000A114B10489F0F70101900020E9F7CF01EC
:1038A0008E199F098F3F910511F008F0F1C069E56D
:1038B00074E0C7010E94F751F70101900020E9F779
:1038C0003197CF018E199F09F60160817181FB014B
:1038D00001900020E9F73197E61BF70BE80FF91F7D
:1038E000EF3FF10511F008F0D3C0C7010E94F75176
:1038F000AB2889F0F70101900020E9F7CF018E197C
:103900009F098F3F910511F008F0C2C067E574E090
:10391000C7010E94F751D6011496CD90DC901597FF
:1039200090CFF3E64F1269C069EE77E0C7010E94BD
:103930000D52892B09F04FC1CE0101967C01C114B3
:10394000D10409F05EC0BE016F5F7F4F22C1B1E6B6
:103950004B1203C065EB77E005C0E2E64E12E1CF03
:103960006FE973E1C7010E940D52892B09F033C141
:10397000F2E0AF16B10499F4A7016AEB77E030C129
:10398000D601AD90BC90F30164817581D5019C9105
:10399000FB018081981739F0F601C680D780C114E9
:1039A000D10471F722C1C5010E940D52892BA1F7E4
:1039B000D6011496CD90DC901597C114D104C9F0AE
:1039C000B1E64B120AC065EB77E0C7010E940D52C9
:1039D000E1E0892B19F4E0E001C0E1E0F0E0EE0F56
:1039E000FF1FEC0DFD1D60817181C8010E94EC0379
:1039F000FAC0A50162ED77E0F3C0552009F455C087
:103A00009BCF552041F0D60114968D919C9115972E
:103A1000892B09F446C0F601A080B180B501C4012C
:103A20000E94233F18161906E4F5C5010E946F3B5A
:103A30005C018981882381F0F70101900020E9F77A
:103A4000CF018E199F098F3F910509F008F561E9B3
:103A500074E1C7010E94F751A114B10409F0C8C074
:103A6000F70101900020E9F73197CF018E199F09E6
:103A7000D6016D917C91FB0101900020E9F731970F
:103A8000E61BF70BE80FF91FEF3FF10521F018F0E7
:103A90006FE675E01CC0C7010E94F751AB2809F022
:103AA000B9C0F601C680D7804ACFF5E64F1224C0D0
:103AB00066E47AE0C7010E940D526C01892B09F07F
:103AC0008CC083E0A816B10431F062EF77E0C80142
:103AD0000E94020488C0D30114966D917C911597C1
:103AE00040E050E0C8010E94230341E050E0892BF0
:103AF000B1F440E050E013C0BCE64B1237C067E2BF
:103B000078E0C7010E940D526C01892B09F065C055
:103B1000E2E0AE16B10449F4D8014D915C9169E838
:103B200076E0C8010E94FB0B93C0F301E480F580AE
:103B3000C7010E94F53F1816190674F4BC01C701AD
:103B40000E94CC3F892B61F4D8011496ED91FC9131
:103B50001597628173813BC0A7016BEC75E040C093
:103B6000F301448155816DE078E03AC0F0E74F12EF
:103B700014C062E278E0C7010E940D52892B39F02F
:103B80006DE278E0C7010E940D52892B31F560E3A8
:103B900078E0C8010E94EC0328C083E748121DC0EA
:103BA00066E378E0C7010E940D526C01892BA9F4ED
:103BB00040E050E06DE378E0C8010E9423030097E5
:103BC00009F446C0DC0112966D917C911397C801EF
:103BD0000E94EC033DC05110AFCEA70168E478E02D
:103BE000C8010E94FC046C0133C0C12CD12C30C030
:103BF000F70101900020E9F7CF018E199F098F3F4F
:103C0000910511F008F044CF69E574E0C7010E9406
:103C1000F75126CFF70101900020E9F7CF018E1967
:103C20009F098F3F910511F008F032CF67E574E0EE
:103C3000C7010E94F75135CF55245394B3E0AB161A
:103C4000B10409F4C7CD8CE6882E8EE0982E74CE90
:103C5000C601D3950FB6F894DEBF0FBECDBFDF917E
:103C6000CF911F910F91FF90EF90DF90CF90BF9079
:103C7000AF909F908F907F906F905F904F9008953E
:103C8000AF92BF92CF92DF92EF92FF920F931F936A
:103C9000CF93DF93CDB7DEB7A0970FB6F894DEBF12
:103CA0000FBECDBF8C015B016A01CB010297029769
:103CB00028F042EB58E06EEA75E040C0FA01E2807D
:103CC000F38040E050E0B701C8010E942303009751
:103CD000F1F0FC0122813381232B41F441E050E0DB
:103CE000B701C8010E942303009789F0FC01E2801C
:103CF000F380C7010E94F53F1816190634F4BC0181
:103D0000C7010E94CC3F7C0104C0A70115C0E12C73
:103D1000F12CF3E0AF16B104A9F4F601A480B5804C
:103D2000C5010E94F53F181619062CF4BC01C50107
:103D30000E94CC3F09C0A5016BEC75E0C8010E9450
:103D4000FC0427C081E090E0E80EF91EF601A28095
:103D5000B380FF92EF9289E896E09F938F93CE0114
:103D600001966C019F938F930E94A15220E030E056
:103D7000A601B501C8010E946503A70169E876E0C4
:103D8000C8010E94FB0B0F900F900F900F900F90A7
:103D90000F90A0960FB6F894DEBF0FBECDBFDF9197
:103DA000CF911F910F91FF90EF90DF90CF90BF9038
:103DB000AF900895AF92BF92CF92DF92EF92FF92B1
:103DC0001F93CF93DF93CDB7DEB7DA950FB6F89494
:103DD000DEBF0FBECDBF7C016B015A01FA018081AD
:103DE0009181FC012081293639F461E67DE00E9451
:103DF0000D5211E0892B09F010E0F3E0CF16D10449
:103E000041F04BEC58E06EEA75E0C7010E94FC04FB
:103E100028C0BE016F5F7F4FF501848195810E94AC
:103E20000D026C01892BA9F0F501628173819981E2
:103E3000FB018081981308C0CE0101960E940D52AB
:103E4000892B11F4412F07C0BE016F5F7F4FC60160
:103E5000E6CF41E0412750E069E876E0C7010E94E3
:103E6000FB0BD3950FB6F894DEBF0FBECDBFDF912D
:103E7000CF911F91FF90EF90DF90CF90BF90AF90C8
:103E80000895DF92EF92FF920F931F93CF93DF93EA
:103E90006330710569F04EED58E06EEA75E0DF9130
:103EA000CF911F910F91FF90EF90DF900C94FC0445
:103EB0008A017C01FA018281938164817581FC0110
:103EC0003081FB012081321306C00E940D52DD2497
:103ED000D394892B09F0D12CCD2DD0E0F80180812D
:103EE0009181FC0120812E3651F463E173E10E943F
:103EF0000D52892B21F441E04D2550E001C0AE0167
:103F000069E876E0C701DF91CF911F910F91FF9093
:103F1000EF90DF900C94FB0B0F931F93CF93DF93E5
:103F20006530710551F04EEE58E06EEA75E0DF91B4
:103F3000CF911F910F910C94FC048A01EC01FA01BE
:103F40006281738141E050E00E942D05009759F590
:103F5000F8016085718541E050E0CE010E942D0599
:103F60008330910511F420E01CC00197C9F0F801DD
:103F70006681778141E050E0CE010E942D050097D7
:103F800091F4F80164817581CE010E94DD400097B3
:103F900051F48A859B850E94464E892BC9F6E3CF52
:103FA00021E090E001C0282F822FDF91CF911F9157
:103FB0000F9108952F923F924F925F926F927F924E
:103FC0008F929F92AF92BF92CF92DF92EF92FF9229
:103FD0000F931F93CF93DF933B0121E0621A710887
:103FE000633071052CF44AE059E06EEA75E024C0B4
:103FF0007A011B01EC012A015A0124E0C22ED12CC6
:1040000003E010E0021513050CF06BC0F50186808B
:104010009780F4018081853609F043C06FE379E031
:10402000C4010E940D52892B41F506151705C1F4F4
:10403000A40166E479E0CE01DF91CF911F910F9149
:10404000FF90EF90DF90CF90BF90AF909F908F90B8
:104050007F906F905F904F903F902F900C94FC0456
:104060006C147D04A9F50F5F1F4F000F111FF7019E
:10407000E00FF11F408151810BC066EA79E0C40175
:104080000E940D52892B69F40615170521F4A4012D
:1040900066E779E0D0CF6C147D04D1F06BEA79E06B
:1040A00002C069EE79E0CE01DF91CF911F910F91AF
:1040B000FF90EF90DF90CF90BF90AF909F908F9048
:1040C0007F906F905F904F903F902F900C940204E0
:1040D0000D5F1F4FF3E0CF0ED11C26E0A20EB11CE6
:1040E00091CFF70162817381CE010E94DD4000977C
:1040F00009F06CC08A859B850E94464E892B21F071
:10410000F7016481758131C003E010E002151305E9
:104110000CF045C0F20186819781FC012081253693
:10412000D9F46FE379E00E940D52892BA9F4F201D2
:1041300060857185CE010E94DD40009709F046C080
:104140008A859B850E94464EF6E04F0E511C892BB6
:1041500019F10E5F1F4F02C00F5F1F4F000F111F9D
:10416000F701E00FF11F6081718141E050E0CE0165
:10417000DF91CF911F910F91FF90EF90DF90CF9043
:10418000BF90AF909F908F907F906F905F904F9077
:104190003F902F900C942D050D5F1F4FB7CF66E910
:1041A00071E1CE01DF91CF911F910F91FF90EF90C0
:1041B000DF90CF90BF90AF909F908F907F906F9047
:1041C0005F904F903F902F900C94EC03DF91CF9134
:1041D0001F910F91FF90EF90DF90CF90BF90AF9025
:1041E0009F908F907F906F905F904F903F902F9017
:1041F00008956230710531F045E05AE06EEA75E0ED
:104200000C94FC04FA01628173810C940204CF9235
:10421000DF92EF92FF920F931F93CF93DF93623061
:1042200071052CF443E15AE06EEA75E020C0FC0110
:1042300020813181121613068CF5EA018C017A0176
:10424000F2E0EF0EF11C660F771FC60FD71FF701C4
:10425000C190D1907F0140E050E0B601C8010E94BA
:104260002303892B71F0A60160E37AE0C801DF9196
:10427000CF911F910F91FF90EF90DF90CF900C9412
:10428000FC0420E030E040E050E0B601C8010E94AC
:104290006503892B19F4EC16FD06C9F680E090E061
:1042A000DF91CF911F910F91FF90EF90DF90CF9012
:1042B0000895CF92DF92EF92FF920F931F93CF93C7
:1042C000DF93CDB7DEB7DA950FB6F894DEBF0FBE39
:1042D000CDBF8C017A01CB010297029728F04DE403
:1042E0005AE06EEA75E091C0DA0112964D915C9148
:1042F00013976230710511F4BA010AC0FA010190F6
:104300000020E9F73197E41BF50B31F466E971E120
:10431000C8010E94EC037CC0DA018C91853209F05F
:1043200072C0DA01119621E030E031972E173F0775
:10433000B8F48D918B3289F044F4833271F0873276
:1043400061F0803209F05FC008C08D3231F00CF4AA
:104350005AC080538A3008F056C02F5F3F4FE6CFD7
:10436000FA01E20FF31F80818936C9F074F48835B1
:10437000B1F034F4853209F046C06EE77AE0C8CF78
:104380008356823008F03FC00AC0833719F11CF40D
:104390008F36C9F504C0853711F08837A1F5F701CC
:1043A000C480D580C6010E94F53F1816190674F422
:1043B000BC01C6010E94CC3FD70112966D917C9141
:1043C0001397AC01C8010E94FB0B22C0A6016BEC45
:1043D00075E01BC0F70185818F9384818F935F9374
:1043E0004F93CE0101967C019F938F930E94A1521F
:1043F000B701C8010E94EC030F900F900F900F902F
:104400000F900F9005C067E67AE0C8010E94FC0497
:10441000D3950FB6F894DEBF0FBECDBFDF91CF911D
:104420001F910F91FF90EF90DF90CF9008952F9202
:104430003F924F925F926F927F928F929F92AF9234
:10444000BF92CF92DF92EF92FF920F931F93CF9381
:10445000DF93CDB7DEB7C250D1400FB6F894DEBFC0
:104460000FBECDBF7C015B011A011A821982FE01C9
:1044700033968EEFDF011D928A95E9F760FF08C041
:1044800040E85AE06EEA75E0C7010E94FC044CC1A6
:1044900062307105A1F5FA010281138160E270E0DA
:1044A000C8010E940252892B29F166E97AE0CE0107
:1044B00001966C010E941652F60101900020E9F766
:1044C0003197CF018C199D09F80101900020E9F77F
:1044D0003197E01BF10BE80FF91FEF3FF10511F0E9
:1044E00008F00AC1B801C6010E94F75141E050E04E
:1044F000B60117C1B801C7010E94EC0315C18E01B6
:104500000F5F1F4FF80101900020E9F73197CF01AD
:10451000801B910BDA011496CD90DC901597F60173
:1045200001900020E9F73197EC19FD09E80FF91F18
:10453000EF3FF10511F008F0DFC0B601C8010E949D
:10454000F751F10182809380C4010E946F3B3C01CE
:104550008981882389F0F80101900020E9F7CF01D3
:10456000801B910B8F3F910511F008F0C5C061E9E8
:1045700074E1C8010E94F7516114710489F0F801D7
:1045800001900020E9F7CF01801B910B8F3F91052F
:1045900011F008F0B1C069E574E0C8010E94F7515C
:1045A000F80101900020E9F73197CF01801B910BB2
:1045B000F40101900020E9F73197E819F909E80FB3
:1045C000F91FEF3FF10511F008F096C0B401C801E2
:1045D0000E94F751672889F0F80101900020E9F75F
:1045E000CF01801B910B8F3F910511F008F084C023
:1045F00067E574E0C8010E94F75183E0682E712CD2
:10460000C5010197CF5FDE4F99838883C150D140A8
:104610006A147B040CF082C0CF5FDE4FA881B981A1
:10462000C150D1406A167B068CF4F10180859185DA
:10463000DC013C91F6012081321305C0B6010E94D5
:104640000D52892B19F06CE97AE058C0D101169609
:104650008D909C901797C4010E946F3B2C0189811B
:10466000882389F0F80101900020E9F7CF01801B31
:10467000910B8F3F910511F008F03EC061E974E1A4
:10468000C8010E94F7514114510481F0F8010190D2
:104690000020E9F7CF01801B910B8F3F910509F0B6
:1046A00058F569E574E0C8010E94F751F8010190DE
:1046B0000020E9F73197CF01801B910BF4010190A5
:1046C0000020E9F73197E819F909E80FF91FEF3FE2
:1046D000F10509F088F4B401C8010E94F75145289A
:1046E000B1F0F80101900020E9F7CF01801B910B98
:1046F0008F3F910539F030F06FE675E0C7010E94F9
:10470000020412C067E574E0C8010E94F751B2E0EC
:104710006B0E711CE4E02E0E311C7ACF41E050E0AC
:10472000B801C7010E942D05CE5FDE4F0FB6F89489
:10473000DEBF0FBECDBFDF91CF911F910F91FF90D4
:10474000EF90DF90CF90BF90AF909F908F907F9031
:104750006F905F904F903F902F9008954F925F928F
:104760006F927F928F929F92AF92BF92CF92DF9281
:10477000EF92FF920F931F93CF93DF93CDB7DEB7E6
:10478000D2500FB6F894DEBF0FBECDBF6C014B0107
:104790005A018E010F5F1E4F8091160190911701F3
:1047A000F801819391938EEFDF011D928A95E9F7CD
:1047B0006330710544F441EB5AE06EEA75E0C601DE
:1047C0000E94FC047EC1FA0182819381DC012C915C
:1047D0002436D1F467EC7AE00E940D527C01892BDB
:1047E00009F06AC16FE270E0F501848195810E9451
:1047F0003A52009731F0DC011C92F5016481758119
:1048000057C166E971E154C12A36A9F56FEC7AE027
:104810000E940D527C01892B09F04EC1D5011496DE
:104820006D917C911597C8010E9416523501B6E032
:104830006B0E711C880C991C8A0C9B1C86149704A7
:1048400009F41CC1F301A190B1903F01D5018C91F5
:104850008823A1F3B50186ED9AE00E94233F892BBE
:1048600009F031C1B50184ED9AE00E94233F892B04
:1048700009F029C12DC1233709F002C16CED7AE09E
:104880000E940D527C01892B09F016C1F501A4800C
:10489000B580D5018C918F32A1F4F80101900020F0
:1048A000E9F7CF01801B910B8F3F910511F008F0C4
:1048B000DDC06AED7AE0C8010E94F751BFEFAB1A84
:1048C000BB0AFE0131963F016FE270E0C5010E9414
:1048D00002522C01009709F472C04C018A189B08FF
:1048E000A401B501C3010E94D551F301E80DF91DE2
:1048F0001082C3010E946F3B5C01D8018C91882318
:1049000089F0F80101900020E9F7CF01801B910B9D
:104910008F3F910511F008F0A9C061E974E1C80169
:104920000E94F751A114B10489F0F8010190002010
:10493000E9F7CF01801B910B8F3F910511F008F033
:1049400095C069E574E0C8010E94F751F801019033
:104950000020E9F73197CF01801B910BF301019003
:104960000020E9F73197E619F709E80FF91FEF3F43
:10497000F10511F008F07AC0B301C8010E94F751A7
:10498000AB2889F0F80101900020E9F7CF01801BE6
:10499000910B8F3F910511F008F068C067E574E056
:1049A000C8010E94F751BFEF4B1A5B0A5201EFEFAB
:1049B0004E1A5E0AD5018C918F32C1F385CFF50175
:1049C0008081882309F45AC0C5010E946F3B4C01C5
:1049D000D8018C91882389F0F80101900020E9F733
:1049E000CF01801B910B8F3F910511F008F03EC065
:1049F00061E974E1C8010E94F7518114910481F0CA
:104A0000F80101900020E9F7CF01801B910B8F3F47
:104A1000910509F058F569E574E0C8010E94F75165
:104A2000F80101900020E9F73197CF01801B910B2D
:104A3000F50101900020E9F73197EA19FB09E80F29
:104A4000F91FEF3FF10509F088F4B501C8010E9494
:104A5000F751892899F0F80101900020E9F7CF017A
:104A6000801B910B8F3F910521F018F06FE675E0E8
:104A700025C067E574E0C8010E94F751B80118C06D
:104A80002437D1F462EE7AE00E940D527C01892B2A
:104A900099F4F501048115816FE270E0C8010E946C
:104AA0003A52009711F4C8010197BC016F5F7F4F24
:104AB000C6010E94EC0343C067EE7AE0C6010E9483
:104AC00002047C013CC0B501C8010E941652B6CE5A
:104AD000D8018C918823C1F0B80189ED9AE00E9439
:104AE000233F892B89F4F80101900020E9F7CF01D9
:104AF000801B910B8F3F910511F008F0B7CF6AED45
:104B00007AE0C8010E94F751F80101900020E9F70E
:104B10003197CF01801B910BF50101900020E9F73F
:104B20003197EA19FB09E80FF91FEF3FF10511F082
:104B300008F09CCFB501C8010E94F7517FCEC70194
:104B4000DE5F0FB6F894DEBF0FBECDBFDF91CF9111
:104B50001F910F91FF90EF90DF90CF90BF90AF909B
:104B60009F908F907F906F905F904F9008950F93DC
:104B70001F93CF93DF93CDB7DEB7DA950FB6F894D6
:104B8000DEBF0FBECDBF8C01623071053CF44FE03B
:104B90005BE06EEA75E00E94FC040AC0CE0101965B
:104BA0000E94B73E41E050E0BC01C8010E942D05C3
:104BB000D3950FB6F894DEBF0FBECDBFDF91CF9176
:104BC0001F910F9108952F923F924F925F926F9293
:104BD0007F928F929F92AF92BF92CF92DF92EF928D
:104BE000FF920F931F93CF93DF93CDB7DEB7D350D0
:104BF0000FB6F894DEBF0FBECDBF19011A8219821D
:104C00003EEFFE013396DF01232F1D922A95E9F72F
:104C10007E01AFEFEA1AADEFFA0AF7011192119295
:104C2000DF011D923A95E9F7FA012081222309F468
:104C3000D4C028016A013B018C01BE016F5F7E4F29
:104C4000C3010E940D025C01BE016F5F7F4FC60170
:104C50000E940D026C01C114D10421F4A114B1040D
:104C600009F4B6C020E030E0AE014F5F5F4FBE01F7
:104C70006F5F7E4FC8010E946503009709F0B1C0C5
:104C8000BE016F5F7E4FC5010E940D025C01892B42
:104C900009F084C041E050E0B101C8010E942D0537
:104CA0008130910509F49BC08330910509F490C0CF
:104CB0004114510409F464C0049709F461C0D80197
:104CC0001A96AD90BC901B97C5010E946F3B4C019A
:104CD000F7018081882381F001900020E9F7CF015E
:104CE0008E199F098F3F910511F008F03EC061E9D0
:104CF00074E1C7010E94F7518114910481F0F7011A
:104D000001900020E9F7CF018E199F098F3F91058F
:104D100009F058F569E574E0C7010E94F751F70101
:104D200001900020E9F73197CF018E199F09F50115
:104D300001900020E9F73197EA19FB09E80FF91F04
:104D4000EF3FF10509F088F4B501C7010E94F75162
:104D50008928B1F0F70101900020E9F7CF018E1901
:104D60009F098F3F910539F030F06FE675E0C8017B
:104D70000E94020436C067E574E0C7010E94F75143
:104D8000BE016F5F7E4FC3010E940D025C01C11422
:104D9000D104F1F088248394912C05C0C114D1046E
:104DA00071F0812C912CBE016F5F7F4FC6010E9474
:104DB0000D026C01892B09F04ECF892849F466E970
:104DC00071E1CE0101960E941652C12CD12C43CF25
:104DD000B701C8010E94EC0304C080E001C081E07B
:104DE00090E0DD5F0FB6F894DEBF0FBECDBFDF9160
:104DF000CF911F910F91FF90EF90DF90CF90BF90D8
:104E0000AF909F908F907F906F905F904F903F906A
:104E10002F9008950F931F936430710541F042E283
:104E20005BE06EEA75E01F910F910C94FC04FA01AF
:104E300026813781448155816281738100E010E0D1
:104E40000E94E3251F910F91089590E0FC01319796
:104E5000EF30F105B0F5EA5AFF4F0C94A95080915C
:104E600080008F7703C0809180008F7D80938000C9
:104E7000089580918000877FF9CF84B58F7702C035
:104E800084B58F7D84BD0895809190008F7707C091
:104E9000809190008F7D03C080919000877F8093E8
:104EA000900008958091C0008F7703C08091C0006A
:104EB0008F7D8093C00008958091C200877F80938A
:104EC000C20008953FB7F8948091A7149091A81458
:104ED000A091A914B091AA1426B5A89B05C02F3F94
:104EE00019F00196A11DB11D3FBFBA2FA92F982F10
:104EF0008827820F911DA11DB11DBC01CD0143E08A
:104F0000660F771F881F991F4A95D1F708956F92F2
:104F10007F928F929F92AF92BF92CF92DF92EF9249
:104F2000FF920F931F93CF93DF93CDB7DEB7D2508D
:104F30000FB6F894DEBF0FBECDBF7C018B015A01C6
:104F40006230710509F455C06430710559F066305E
:104F5000710561F06830710549F04FE35BE06EEA7E
:104F600075E037C0FA018480958025C0F501848002
:104F70009580F40180818F3681F56FE974E1C40179
:104F80000E940D52892B49F50630110551F5F501A6
:104F900086809780F4018081853639F563EC7BE06B
:104FA000C4010E940D52892B01F50830110509F545
:104FB000F50184849584F4018081863639F464E7B0
:104FC0007BE0C4010E940D52892B99F0A4016CE78B
:104FD0007BE0C7010E94FC0483C0A40162EA7BE07D
:104FE000F8CF0830110599F204C0A40169EC7BE008
:104FF000F0CFF5016281738141E050E0C7010E946A
:105000002D054C01F70162847384B301CE01019632
:105010000E9416520630110509F45CC008301105D3
:1050200051F5F1E08F169104E9F4F5016085718581
:1050300020E030E0A301C7010E946503009709F05A
:105040004FC0F5016285738541E050E0C7010E94C1
:105050002D056C01F70162857385CE018F5F9E4F30
:105060000E9416520430110549F00830110539F537
:105070008EE090E005C00430110521F586E090E057
:10508000F501E80FF91F6081718141E050E0C7012F
:105090000E942D05009721F50630110561F4F1E01D
:1050A0008F16910479F4BE016F5F7E4FC7010E9495
:1050B000EC03C60115C00830110589F303C00630A2
:1050C000110569F3BE016F5F7F4FC7010E94EC03BA
:1050D000C40106C081E08816910409F4A6CFF2CF7E
:1050E000DE5F0FB6F894DEBF0FBECDBFDF91CF916C
:1050F0001F910F91FF90EF90DF90CF90BF90AF90F6
:105100009F908F907F906F9008958F929F92AF9213
:10511000BF92CF92DF92EF92FF920F931F93CF93A4
:10512000DF93CDB7DEB7DA950FB6F894DEBF0FBECA
:10513000CDBF8C016B014A01633071052CF44DEE3B
:105140005BE06EEA75E024C0D8011496AD90BC9087
:105150001597FA01E280F380D7018C91833239F4FC
:105160006CE07CE0C7010E940D52892B59F0C70109
:105170000E94F53F1816190644F4BC01C7010E94AD
:10518000CC3F19C08FE097E216C0A7016BEC75E029
:10519000C8010E94FC0425C0D8011496ED91FC9131
:1051A0001597248135812115310541F015963C93E1
:1051B0002E93149701971816190674F3A4014E5FE5
:1051C0005F4FB60161507109CE0101960E94B73E52
:1051D00041E050E0BC01C8010E942D05F801B582F4
:1051E000A482D3950FB6F894DEBF0FBECDBFDF917A
:1051F000CF911F910F91FF90EF90DF90CF90BF90D4
:10520000AF909F908F900895EF92FF920F931F930E
:10521000CF93DF936330710529F04FE05CE06EEAD5
:1052200075E04DC07A018C01FA01C281D381CE01B3
:105230000E94F53F181619067CF4BC01CE010E94AD
:10524000CC3FEC01F701E480F580C7010E94F53FF7
:10525000181619061CF02FC0AE012EC0BC01C701E4
:105260000E94CC3F182F9E013327F901E05DFE4FCD
:105270008491F901EF5EFE4FD491F901EE50FF4F9A
:10528000C491CC2321F181110E942527EC2FF0E05D
:10529000EE0FFF1FEA52FF4FA591B4919FB7F8940C
:1052A000111104C08C91D095D82302C0EC91DE2B53
:1052B000DC939FBF0CC0A7016BEC75E0C801DF91C8
:1052C000CF911F910F91FF90EF900C94FC0480E020
:1052D00090E0DF91CF911F910F91FF90EF90089593
:1052E0006F927F928F929F92AF92BF92CF92DF92F6
:1052F000EF92FF920F931F93CF93DF93CDB7DEB75B
:10530000DA950FB6F894DEBF0FBECDBF5C016B011E
:105310004A016230710544F44CE15CE06EEA75E0EC
:10532000C5010E94FC0438C001E010E03B01E1E04F
:105330006E1A710862E47CE0CE0101960E9416525A
:105340007801EE0CFF1CE80CF91CF70160817181FB
:10535000CE0101960E94F75141E050E0BE016F5F1F
:105360007F4FC5010E942D05009779F4061517059A
:1053700064F4F701428153816081718121E030E062
:10538000C5010E9465030F5F1F4F0F5F1F4F0C1574
:105390001D0514F4009771F2D3950FB6F894DEBF93
:1053A0000FBECDBFDF91CF911F910F91FF90EF9076
:1053B000DF90CF90BF90AF909F908F907F906F9035
:1053C00008950F931F93CF93DF93EC018A0163300D
:1053D0007105E1F04AE45CE06EEA75E0DF91CF919F
:1053E0001F910F910C94FC048A859B850E94464E68
:1053F000892BC1F0F8016481758141E050E0CE0154
:105400000E942D059C012B7F232B49F4F80162811A
:105410007381CE010E94DD40009731F30CC08330D0
:10542000910549F466E971E1CE01DF91CF911F91B9
:105430000F910C94EC03DF91CF911F910F91089580
:105440000F931F93CF93DF936230710529F04DE5E1
:105450005CE06EEA75E040C0FA01EC010281138164
:10546000C8010E94F53F181619060CF031C0BC01A6
:10547000C8010E94CC3F9C013327F901E05DFE4F3B
:105480008491F901EF5EFE4F0491F901EE50FF4F58
:105490001491112391F081110E942527E12FF0E052
:1054A000EE0FFF1FEC51FF4FA591B491EC91E0235B
:1054B00041E050E021F440E002C040E050E069E803
:1054C00076E0CE01DF91CF911F910F910C94FB0BF1
:1054D000A8016BEC75E0CE01DF91CF911F910F9188
:1054E0000C94FC046F927F928F929F92AF92BF9226
:1054F000CF92DF92EF92FF920F931F93CF93DF93A0
:105500006230710529F049E65CE06EEA75E04CC056
:105510005A018C01FC01C480D580F601C081D18183
:10552000E12CF12CF501428153812097D1F1888043
:105530009980F4019081FA0180816C807D809813BC
:105540002DC0BA01C4010E940D52892B39F5E11416
:10555000F10421F4F6016082718203C0F7016482D4
:105560007582C4010E940D4F8A819B810E940D4F5C
:10557000CE010E940D4F66E971E1C801DF91CF9124
:105580001F910F91FF90EF90DF90CF90BF90AF9061
:105590009F908F907F906F900C94EC037E01E301BD
:1055A000C1CF67E77CE0C801DF91CF911F910F91D8
:1055B000FF90EF90DF90CF90BF90AF909F908F9033
:1055C0007F906F900C94FC044091AF145091B014F4
:1055D0002091AD143091AE1442175307B4F490915A
:1055E000E8009570E1F39091E80092FD19C0809376
:1055F000F1008091AF149091B01401968F739927A8
:10560000892B19F48EEF8093E8008091AF1490916C
:10561000B01401969093B0148093AF1481E0089574
:1056200080E008958F929F92AF92BF92CF92DF92C7
:10563000EF92FF926B017C010E9462274B015C019B
:10564000C114D104E104F104F1F00E946227DC01ED
:10565000CB0188199909AA09BB09883E9340A10585
:10566000B10570F321E0C21AD108E108F10888EE13
:10567000880E83E0981EA11CB11CC114D104E10462
:10568000F10419F7DDCFFF90EF90DF90CF90BF903E
:10569000AF909F908F9008950F931F93CF93DF93B8
:1056A0006230710529F041E65EE06EEA75E00EC0F9
:1056B000FA01EC0102811381C8010E94F53F18161E
:1056C000190654F0A8016BEC75E0CE01DF91CF9183
:1056D0001F910F910C94FC04BC01C8010E94CC3FA7
:1056E000BC01990F880B990B0E94122B80E090E06F
:1056F000DF91CF911F910F9108951F920F920FB6D6
:105700000F9211242F933F938F939F93AF93BF9347
:105710008091A3149091A414A091A514B091A61403
:105720003091A21426E0230F2D3720F40296A11DFC
:10573000B11D05C029E8230F0396A11DB11D2093BB
:10574000A2148093A3149093A414A093A514B093CF
:10575000A6148091A7149091A814A091A914B091B7
:10576000AA140196A11DB11D8093A7149093A814AB
:10577000A093A914B093AA14BF91AF919F918F9158
:105780003F912F910F900FBE0F901F9018955F9231
:105790006F927F928F929F92AF92BF92CF92DF9241
:1057A000EF92FF920F931F93CF93DF93CDB7DEB7A6
:1057B000DA950FB6F894DEBF0FBECDBF7C015B015A
:1057C0006A011A821982FE0133968EEFDF011D9263
:1057D0008A95E9F76330710544F448E85EE06EEAC3
:1057E00075E0C7010E94FC04B1C06330710509F087
:1057F00057C0BE016F5F7F4FDA0114968D919C9167
:1058000015970E940D028C01A12CB12C01151105D8
:1058100031F466E971E1C7010E94EC0397C0A1145D
:10582000B104C9F49980F60162817381DB018C9126
:10583000981206C0CE0101960E940D52892B59F094
:10584000B4E69B1225C066EB7EE0CE0101960E9475
:105850000D52892BE9F4BE016F5F7F4FC8010E9492
:105860000D028C01892BF1F089818D3241F469E6BA
:105870007EE0CE0101960E940D52892B31F041E06D
:1058800050E0BE016F5F7F4F56C0AA24A394B12C95
:10589000BE016F5F7F4FC8010E940D028C01B6CF21
:1058A00060FF06C06EEB7EE0C7010E9402044EC09E
:1058B00002E010E0612C712C6114710409F5F8010B
:1058C000EE0FFF1FEC0DFD1D80809180F4015080D4
:1058D000D60112966D917C911397FB01808158122D
:1058E00005C0C4010E940D52892B51F0F4E65F12ED
:1058F00026C066EB7EE0C4010E940D52892BF9F4AC
:105900000F5F1F4FF801EE0FFF1FEC0DFD1D808094
:105910009180D4018C918D3259F469E67EE0C40106
:105920000E940D52892B21F466246394712C07C0C8
:1059300041E050E0B401C7010E942D0507C00F5F90
:105940001F4F0A151B050CF4B7CF63CFD3950FB6C5
:10595000F894DEBF0FBECDBFDF91CF911F910F91A5
:10596000FF90EF90DF90CF90BF90AF909F908F907F
:105970007F906F905F9008956230710531F044EE32
:105980005EE06EEA75E00C94FC04FA0162817381BA
:1059900040E050E00C942D050F931F93CF93DF93BD
:1059A0008C01C82FD12F8881882339F0082E000C54
:1059B000990B0E94B3518993F6CFC801DF91CF9123
:1059C0001F910F9108952F923F924F925F926F9285
:1059D0007F928F929F92AF92BF92CF92DF92EF927F
:1059E000FF920F931F93CF93DF93CDB7DEB7C651CE
:1059F000D6400FB6F894DEBF0FBECDBF2C014B01D1
:105A00005A016E012FEFC21A2AEFD20A60903C02AF
:105A100070903D02F601619271929EEFF92EDF01C6
:105A20002F2D1D922A95E9F7633071051CF446EF7E
:105A30005EE031C0DA0112960D911C911397F801C6
:105A40003080FCE63F1215C06CE17DE0C8010E9489
:105A50000D527C01892B09F062C0F501A481B5814A
:105A6000FD0101900020E9F73197AF014A1B5B0B64
:105A7000E4C3F3E63F1223C063E17FE0C8010E9464
:105A80000D527C01892B09F003C524E08216910494
:105A900049F04BE15FE06EEA75E0C2010E94FC0450
:105AA0007C01FCC4D50116966D917C9117971496D4
:105AB0008D919C9115970E940D52AC01BEC3B5E625
:105AC0003B1227C060E37FE0C8010E940D527C01B9
:105AD000892B09F0DDC4E4E08E16910419F046E349
