:100000000C9462000C947F000C947F000C947F0091
:100010000C947F000C947F000C947F000C947F0064
:100020000C947F000C947F000C947F000C947F0054
:100030000C947F000C947F000C947F000C947F0044
:100040000C9404420C947F000C947F000C947F006D
:100050000C947F000C947F000C947F000C947F0024
:100060000C947F000C947F006364696E6F707375ED
:1000700078585B0000000000250028002B000000DD
:1000800000002300260029000404040404040404DE
:100090000202020202020303030303030102040833
:1000A00010204080010204081020010204081020E2
:1000B0000000000800020100000304070000000027
:1000C0000000000011241FBECFEFD8E0DEBFCDBF7F
:1000D00014E1A0E0B1E0E4EFF5EA02C005900D9272
:1000E000AE39B107D9F724E1AEE9B4E101C01D9200
:1000F000A53BB207E1F70E944E420C94F8520C94D3
:100100000000FC018281938101969383828397830F
:1001100086838481958101979583848321E030E0F3
:1001200084819581A281B3818230910550F04C91F8
:100130004C3549F41196B383A28301979583848348
:100140001CC0009719F04C914D3799F4215031099A
:1001500011F0009791F49D012150310931872087DA
:100160000097B1F01196B383A2830197958384839E
:100170000FC04B3711F42F5F3F4F8281938101965F
:100180009383828384819581019795838483C8CFEB
:1001900081E090E09387828780E090E00895DF928D
:1001A000EF92FF920F931F93CF93DF93EC018A8519
:1001B0009B859C0124503109DD24D39422303105E4
:1001C00018F0019709F0D12C0C811D810330110525
:1001D000C0F0EA80FB8043E050E060E374E0C701D8
:1001E0000E94D74C892B69F481E090E09F878E872D
:1001F00083E0E80EF11CFB82EA82035011091D83A3
:100200000C83DD20E9F0EA81FB8180818B3751F49A
:10021000CE01DF91CF911F910F91FF90EF90DF9072
:100220000C948100823261F481E090E09D878C879C
:100230003196FB83EA838C819D8101979D838C831A
:100240008A819B819F838E832C813D81EA81FB8102
:100250002115310539F18081823251F154F48D300C
:10026000E9F024F489508230B8F518C08032B1F03A
:1002700033C08B3399F01CF48432A1F02DC08B3540
:1002800089F08C3549F52230310530F13196FB8308
:10029000EA83215031093D832C831EC08C859D85C6
:1002A000892BD1F43197F987E8871B861A861FC0FE
:1002B0008C859D85892B81F0CF010197998788874F
:1002C0001B861A863196FB83EA83215031093D83D0
:1002D0002C831D861C860BC08A819B8101969B8383
:1002E0008A838C819D8101979D838C83ADCF80E033
:1002F00090E0DF91CF911F910F91FF90EF90DF90F1
:1003000008958F929F92AF92BF92CF92DF92EF9219
:10031000FF920F931F93CF93DF93009709F485C04B
:10032000FC012081222309F480C07B01EC018E01B5
:10033000C88021968C2D0C2C000C990B0E94294909
:10034000892BA9F7CC2009F470C0E801812C912CED
:10035000A12CB12CD880FBE7DF1204C08FEFA81AC4
:10036000B80A61C0EDE7DE1204C0F1E0AF1AB108CF
:100370005AC0A114B10409F050C082E2D81214C0CE
:100380008114910431F0EBE7CE16E1F080E090E0CB
:100390001DC00C171D0709F443C082E290E00E94C3
:1003A0002949892BE9F53FC08114910499F58D2DD8
:1003B0000D2C000C990B0E942949892B21F7DD2077
:1003C00011F331C00F5F1F4F81E090E0F8012081F1
:1003D000223229F40F5F1F4F219681E090E06E01D9
:1003E000C01AD10AC81AD90AA601B801C7010E94C9
:1003F000E54CF701EC0DFD1D10828E01E8010F5F49
:100400001F4F8881082E000C990B0E942949892BC7
:10041000A9F70EC088248394912CD11004C008C081
:1004200088248394912C219695CF80E090E001C0A0
:10043000CE01DF91CF911F910F91FF90EF90DF9050
:10044000CF90BF90AF909F908F9008958F929F9282
:10045000AF92BF92CF92DF92EF92FF920F931F93D2
:10046000CF93DF93EC015B0118828A01E12CF12C20
:10047000EA14FB0454F54801F801808191810E943F
:1004800036356C018881882329F06BED70E1CE014F
:100490000E94B14CC114D10429F064E374E0CE0190
:1004A0000E94B14C0E5F1F4FF40160817181CE013B
:1004B0000E94B14CCD2829F062E374E0CE010E9485
:1004C000B14CFFEFEF1AFF0AD3CFCE01DF91CF91EE
:1004D0001F910F91FF90EF90DF90CF90BF90AF9062
:1004E0009F908F9008950F931F93CF93DF938B016D
:1004F000FC01C681D781209789F088819981FC0110
:100500003081F8012081321305C0B8010E94C74C28
:10051000892B39F00E80DF81C02DEDCF80E090E097
:1005200001C0CE01DF91CF911F910F9108950F93DC
:100530001F93CF93DF938B01DC011496ED91FC9117
:100540001597C081D181DB018C918A3331F41196EA
:100550008C918A3311F481E003C0452B71F080E067
:10056000248135812115310511F0F901F9CFC081C0
:10057000D181882311F00E5F1F4F209789F0888169
:100580009981FC013081D8012C91321305C0B8014A
:100590000E94C74C892B39F00C80DD81C02DEDCF36
:1005A00080E090E001C0CE01DF91CF911F910F91CB
:1005B00008956F927F928F929F92AF92BF92CF9247
:1005C000DF92EF92FF920F931F93CF93DF936C0113
:1005D0007B015A01490140E050E0B701C6010E9489
:1005E00097028C01F70180818A3309F04FC0818125
:1005F0008A3309F04BC0C1E041E050E0B701C601C9
:100600000E9497028C010115110559F0F8018281B1
:10061000938188248394912C0097E9F20E94D24917
:100620002BC0F60164807580892829F4C11105C0AA
:10063000C62DD72D0DC0CC2319F0E2E0EE0EF11C33
:10064000C62DD72D8C819D81009711F0EC01FACF3A
:1006500086E090E00E943A498C01C7010E94754CE7
:10066000F80191838083888199819583848319839C
:100670000883F60164827582A114B10421F0C501DA
:100680000E94754C09C080E090E006C0C0E0811473
:10069000910409F0B1CFB7CFF8019383828380E052
:1006A00090E0DF91CF911F910F91FF90EF90DF903D
:1006B000CF90BF90AF909F908F907F906F90089554
:1006C000CF92DF92EF92FF920F931F93CF93DF931E
:1006D000CDB7DEB7A0970FB6F894DEBF0FBECDBF83
:1006E0007C016B015F934F9386E394E09F938F931C
:1006F0008E010F5F1F4F1F930F930E945B4D20E0F1
:1007000030E0A801B601C7010E94D9020F900F90F6
:100710000F900F900F900F90A0960FB6F894DEBF39
:100720000FBECDBFDF91CF911F910F91FF90EF9042
:10073000DF90CF9008950F931F93CF93DF93EC0139
:100740008B018A859B850E94D249C8010E94754C05
:100750009B878A8780E090E0DF91CF911F910F9176
:1007600008958F929F92AF92BF92CF92DF92EF92B5
:10077000FF920F931F93CF93DF93CDB7DEB7DA9538
:100780000FB6F894DEBF0FBECDBF6C015B011A82BD
:100790001982FE0133968EEFDF011D928A95E9F7EB
:1007A000FB0101900020E9F731978F01061B170B21
:1007B0000F3F110511F008F080C0CE0101960E9494
:1007C000B14CF601E084F184E114F10461F10A3ED8
:1007D00011050CF074C06EE374E0CE0101960E9426
:1007E000B14CF70101900020E9F731974F018E18C5
:1007F0009F08C801880D991D8F3F910511F008F0E1
:100800005EC0B701CE0101960E94B14C0F3F1105A9
:1008100009F455C063E574E0CE0101960E94B14C25
:10082000C401479602C080E090E0D6011496ED9096
:10083000FC901597F70122813381232B09F468C0BE
:1008400024813581232B09F463C0080F191FC801C7
:100850004A968F3F910509F090F565E574E0CE0169
:1008600001960E94B14CD70112966D917C9113971D
:10087000FB0101900020E9F731974F01861A970A92
:10088000C801880D991D8F3F910509F0C0F4CE0174
:1008900001960E94B14CC80101968F3F910509F065
:1008A00070F463E574E0CE0101960E94B14CC4017E
:1008B0004B96F701E480F580BDCF00E010E0E1E069
:1008C000F0E0EC0FFD1FE00FF11F10821016110673
:1008D000E4F4A9E3B4E0FD0101900020E9F73197C9
:1008E000EA1BFB0BE00FF11FEF3FF10509F080F46D
:1008F000101611061CF06AE374E002C069E374E0AC
:10090000CE0101960E94B14C03C0AAE3B4E0E3CF4C
:1009100021E030E0AE014F5F5F4F60E774E0C60159
:100920000E94D902B501C6010E949B0381E090E0BC
:10093000D3950FB6F894DEBF0FBECDBFDF91CF9138
:100940001F910F91FF90EF90DF90CF90BF90AF90ED
:100950009F908F900895EF92FF920F931F93CF93E4
:10096000DF93CDB7DEB7DA950FB6F894DEBF0FBED2
:10097000CDBF7C015F934F937F936F938E010F5F89
:100980001F4F1F930F930E945B4DB801C7010E9438
:10099000B1030F900F900F900F900F900F90D39581
:1009A0000FB6F894DEBF0FBECDBFDF91CF911F9180
:1009B0000F91FF90EF9008952F923F924F925F9288
:1009C0006F927F928F929F92AF92BF92CF92DF925F
:1009D000EF92FF920F931F93CF93DF93CDB7DEB7C4
:1009E000C452D3400FB6F894DEBF0FBECDBFCB5E6E
:1009F000DC4F99838883C551D3408B01C15EDC4FA6
:100A000059834883CF51D3406FEB7DE00E949B0315
:100A10002E012FEF421A2CEF520AD20113961C938B
:100A20000E93129711961C930E93F80101900020DB
:100A3000E9F73197E01BF10B1596FC93EE931497B1
:100A400017961C921E92169719961C921E92189732
:100A50001D961C921E921C9785E090E01B969C931D
:100A60008E931A971F961C921E921E97C95EDC4F9A
:100A700019821882C751D340812C912C212C312C02
:100A8000FE01EF5EFC4FCD5EDC4FF983E883C3517E
:100A9000D340C55FDC4F88819981CB50D340C35E82
:100AA000DC4F99838883CD51D340D20114962D9188
:100AB0003C9115972115310571F4C35EDC4F888197
:100AC0009981CD51D3400597029708F0A2C0E6E086
:100AD000F0E0D20194C1D2011296ED91FC911397EE
:100AE0008081803271F154F48A3009F464C08D3011
:100AF00009F461C0893009F0C2C123C0843209F40D
:100B0000ECC024F4833209F487C1B9C18B3309F4F2
:100B100052C08B3509F0B3C13196D2011396FC93C4
:100B2000EE9312971796FC93EE9316972150310986
:100B300015963C932E93149720E030E041E050E06E
:100B400081C0D2011C968D919C911D97892B09F033
:100B500096C1D2011796FC93EE931697F20102818B
:100B60001381D801FC908F2D0F2C000C990B0E9443
:100B70002949892B39F4BCE5FB1215C0F8018181A4
:100B80008A3089F40F5F1F4FD20113961C930E9386
:100B9000129714968D919C911597019715969C9399
:100BA0008E931497DBCF01501109F2011187008752
:100BB00084E090E0AEC0D2011C968D919C911D976F
:100BC000892B09F05CC11796FC93EE931697F201FE
:100BD00002811381D801FC908F2D0F2C000C990BF2
:100BE0000E942949892B19F4BBE3FB120BC00F5F4C
:100BF0001F4FF201138302838481958101979583AE
:100C00008483E5CF01501109D20119961C930E93EC
:100C10001897E5E0F0E0F3C00280F381E02D6081F9
:100C20006B35B1F42115310511F44F5F5F4FF201BF
:100C30008281938101969383828384819581019738
:100C400095838483F20184819581009729F724C0DC
:100C50006D3539F42115310551F74150510939F7F6
:100C60001BC06C3561F43196D2011396FC93EE9360
:100C70001297019715969C938E931497D8CF6B3744
:100C800019F42F5F3F4FD3CF6D3789F6211531050A
:100C900071F221503109CBCFD2011296ED91FC9126
:100CA00013979F012150310919963C932E93189761
:100CB00022E030E01B963C932E931A9720812D352D
:100CC00009F0E0C031961396FC93EE9312970197CA
:100CD00015969C938E931497D5C07F01BFEFEB1AA6
:100CE000FB0AD2011396FC92EE9212971796FC9291
:100CF000EE921697C901019715969C938E931497BF
:100D000081818B3749F4C2010E94810083E090E029
:100D1000F20193878287B6C08A3379F482818A335D
:100D200061F43396D2011396FC93EE9312972350FD
:100D3000310915963C932E931497C12CD12CF201B6
:100D400002811381D801BC908B2D0B2C000C990BC8
:100D50000E94504C892B51F4BFE5BB1669F0E8E2C4
:100D6000BE1639F0F9E2BF1639F017C028E2B21208
:100D700003C0CC24C394D12C0F5F1F4FD201139614
:100D80001C930E93129714968D919C911597019731
:100D900015969C938E931497D2CFCD2891F4F80199
:100DA0008291893271F4D2011396FC93EE931297DB
:100DB00014968D919C911597019615969C938E9300
:100DC0001497F20182819381E816F906E9F4C201D1
:100DD0000E94CF00D20116968D919C911797019792
:100DE00017969C938E93169714968D919C911597B8
:100DF000019615969C938E931497E1E0F0E01B9674
:100E0000FC93EE931A973EC001979187808783E009
:100E100090E09387828736C0C35EDC4FE881F9811A
:100E2000CD51D340359759F5D20114968D919C91AF
:100E30001597009709F439CE1296ED91FC9113970E
:100E400020812A3009F431CE2C3569F421812A30F1
:100E500051F431961396FC93EE93129701971596E1
:100E60009C938E931497F2018281938101969383D0
:100E7000828384819581019795838483D5CFC20134
:100E80000E94CF00D2011A960D90BC91A02DC75E92
:100E9000DC4FB983A883C951D340169709F4E4C342
:100EA000F20160847184E680F7806E147F0430F074
:100EB0006E187F08FFEF6F1A7F0A02C0612C712C39
:100EC000C30101960E943A498C01C75EDC4F8881BC
:100ED0009981C951D3408D7F019709F085C0C55EC6
:100EE000DC4F19830883CB51D340C12CD12CC301D3
:100EF0000197CD5DDC4F99838883C352D340C614DC
:100F0000D70408F068C0C114D10431F0F70131975B
:100F100080818C3509F44BC0D7018C918C3509F058
:100F200046C0CD5DDC4FE881F981C352D340CE1677
:100F3000DF06E8F511968C918A30C9F55701F2E089
:100F4000AF0EB11CC60102966816790609F443C0BB
:100F5000C6018E199F09CF5DDC4F99838883C152EA
:100F6000D340CF5DDC4FC880D980C152D340CA0C7A
:100F7000DB1C75019FEFA91AB90AD7018C91082EC5
:100F8000000C990B0E942949892B59F7C55EDC4F4B
:100F9000E881F981CB51D34020E22193C55EDC4F3B
:100FA000F983E883CB51D3406C147D04A1F0D701C1
:100FB0008D917D01C55EDC4FE881F981CB51D34035
:100FC0008193C55EDC4FF983E883CB51D340FFEFBB
:100FD000CF1ADF0A94CFC55EDC4F68807980CB5191
:100FE000D340601A710A05C0A301B701C8010E946D
:100FF0008F4CF801E60DF71D1082C75EDC4F88812B
:101000009981C951D340039709F041C040E050E0B5
:10101000B801CB5EDC4F88819981C551D3400E94D5
:1010200097027C010097A9F0DC0112968D919C91AA
:101030001397892B09F541E050E0B801CB5EDC4FF6
:1010400088819981C551D3400E9497027C01892BE8
:1010500099F4A8016CE774E0CB5EDC4F888199813C
:10106000C551D3400E94AB04C95EDC4F998388838D
:10107000C751D340E12CF12CC8010E94D249E114A0
:10108000F10409F4F1C2F701828193812DC0C75E9A
:10109000DC4F88819981C951D340029749F541E0DD
:1010A00050E0B801CB5EDC4F88819981C551D340B7
:1010B0000E94DC04C95EDC4F99838883C751D3400A
:1010C000C8010E94D249C95EDC4FA881B981C751CD
:1010D000D340AB2B09F0C8C2CB5EDC4FE881F9816D
:1010E000C551D340828593850E94754C8C01A8C060
:1010F000C75EDC4F88819981C951D340892B09F0A3
:1011000096C06CE570E0C8010E94BC4C892B09F4C4
:1011100097C06801DE01AF5FBD4F7D015AE0652ECB
:1011200069E0762EF6018081882309F477C08C353A
:1011300009F06BC081818E36C1F04CF48A3009F41D
:1011400047C08C3509F066C0D7018C9313C0843733
:1011500079F08837B1F0823709F05CC0EDE0D70153
:10116000EC93FFEFCF1ADF0A52C0D7016C9202C096
:10117000D7017C92BFEFCB1ADB0AF70131967F01D2
:1011800049C0CC5EDC4FF881C451D340FF93CD5EA3
:10119000DC4F2881C351D3402F938EE994E09F9375
:1011A0008F93C60102969F938F930E947D4DCF5ED1
:1011B000DC4F8881C151D340F7018083F3E0CF0E2B
:1011C000D11C0F900F900F900F900F900F901FC099
:1011D0005701FFEFAF1ABF0AE0E2D701EC93F2E04C
:1011E000CF0ED11C76012FEFC21AD20AD7018C91F3
:1011F000082E000C990B0E942949892B99F7670149
:10120000B1E0CB1AD108750105C0F7018083C70191
:1012100001967C019FEFC91AD90A84CFD7011C928D
:10122000BE016F5F7D4FC8010E94D04C09C0C75EF0
:10123000DC4FE881F981C951D340349709F410C2D9
:10124000D2011A968D919C911B97059709F044C184
:10125000C8010E94D249C15EDC4FE881F981CF51BB
:10126000D340EF2B81F4A401B101CE0101960E947D
:101270002602BC01CB5EDC4F88819981C551D340E9
:101280000E949B0354C02114310409F41DC1D401F0
:10129000ED90FC90B701CB5EDC4F88819981C55100
:1012A000D3400E9473028C01892B09F047C0F701DB
:1012B0008081882309F4D8C1833209F4D5C161EA59
:1012C00074E0CB5EDC4F88819981C551D3400E9488
:1012D00073028C01892B01F1FFEF2F1A3F0A710174
:1012E000EE0CFF1CB701C4010E948A4B4C0122E0A6
:1012F000E21AF108FC01EE0DFF1D92918291938399
:101300008283E815F905C9F781EA94E00E94754CDB
:10131000D4018D939C9312C0A70169EA74E0CB5E5F
:10132000DC4F88819981C551D3400E94AB04C95ECE
:10133000DC4F99838883C751D34096C1CB5EDC4F85
:10134000E881F981C551D34080859185009711F0DE
:101350000E94D2497401A40180E090E020E030E0D6
:10136000FA01A191B191AF01FD0101900020E9F7CF
:101370003197EA1BFB0B8E0F9F1F2F5F3F4F2216EB
:10138000330671F78F3F91405CF063EC74E0CB5E05
:10139000DC4F88819981C551D3400E94B103C7CFEA
:1013A000A401B101CE0101960E9426020E94754C53
:1013B000CB5EDC4FA881B981C551D34018968C9380
:1013C000189719969C9319971C962D913C911D97EF
:1013D000232BC9F09F938F9311968C9111978F9324
:1013E0008C918F9385EF94E09F938F938091AE14AF
:1013F0008F938091AD148F930E94194D0FB6F8947E
:10140000DEBF0FBECDBFD80114962D913C9115972C
:101410001296ED91FC911397A401B101CB5EDC4FC4
:1014200088819981C551D3400995C95EDC4F998364
:101430008883C751D340CB5EDC4FE881F981C55129
:10144000D34084859585892B49F112850385A401B4
:10145000B101CE0101960E9426020F931F939F9324
:101460008F93CB5EDC4FA881B981C551D3401196D3
:101470008C9111978F938C918F938FEF94E09F9322
:101480008F938091AE148F938091AD148F930E94AF
:10149000194D0FB6F894DEBF0FBECDBFC95EDC4F4D
:1014A00088819981C751D340892B09F0DDC000E0C4
:1014B00010E0D7018D919D917D010E94D2490F5F6F
:1014C0001F4F20163106A9F7C4010E94D249812C72
:1014D000912C212C312CDDCAC35EDC4F888199818F
:1014E000CD51D3400497F20126853785029708F045
:1014F0004BC0232BB9F4FFEF2F1A3F0A7101EE0CFA
:10150000FF1CB701C4010E948A4B4C01E80EF91E72
:10151000F701329711830083D2011F961C921E920D
:101520001E97B7CAF8018081882309F4B2CABE01A8
:101530006F5F7D4FC8010E9481016C017101EE0C4B
:10154000FF1C5701F2E0AF0EB11CC114D10409F425
:1015500049C02FEF221A320AB501C4010E948A4BFA
:101560004C01CE018F5F9D4F0E94754CF401EE0D32
:10157000FF1D91838083BE016F5F7D4FC6010E9476
:1015800081016C017501DDCF232BB1F1BE016F5FCD
:101590007D4FC8010E9481016C017101EE0CFF1C9E
:1015A000570182E0A80EB11CC114D104D9F09FEFFD
:1015B000291A390AB501C4010E948A4B4C01CE0197
:1015C0008F5F9D4F0E94754CF401EE0DFF1D9183BE
:1015D0008083BE016F5F7D4FC6010E9481016C0157
:1015E0007501DECFC8010E94D249C15FDC4F19826C
:1015F0001882CF50D3404DCA7101A1E0EA1AA0E889
:10160000FA0AEE0CFF1CE80CF91CF70180819181AD
:10161000FC0101900020E9F731976F01C81AD90A3F
:10162000F80101900020E9F731975F01A01AB10A93
:1016300036016A0C7B1CB3016F5F7F4F0E948A4B9F
:10164000D7018D939C93A501B8018C0D9D1D0E941F
:101650008F4CF70180819181FC01E60DF71D10820E
:10166000C8010E94D24915CA740100E010E020169A
:10167000310649F0D7018D919D917D010E94D2499B
:101680000F5F1F4FF4CFC4010E94D249C95EDC4FE7
:1016900088819981C751D340CC5DDC4F0FB6F89457
:1016A000DEBF0FBECDBFDF91CF911F910F91FF9095
:1016B000EF90DF90CF90BF90AF909F908F907F90F2
:1016C0006F905F904F903F902F900895AF92BF9290
:1016D000CF92DF92EF92FF920F931F93CF93DF93FE
:1016E0008C017B015A0169010E947302892B81F0F0
:1016F000A70163E175E0C801DF91CF911F910F91C0
:10170000FF90EF90DF90CF90BF90AF900C94AB0420
:1017100088E090E00E943A49EC01C7010E94754CB4
:1017200099838883BB82AA82DD82CC82F80186817C
:1017300097819F838E83D783C68380E090E0DF917B
:10174000CF911F910F91FF90EF90DF90CF90BF90BE
:10175000AF900895EF92FF920F931F93CF93DF9373
:10176000CDB7DEB7A0970FB6F894DEBF0FBECDBFE2
:101770007C015F934F937F936F938E010F5F1F4F99
:101780001F930F930E945B4DB801C7010E949B03FA
:101790000F900F900F900F900F900F90A0960FB694
:1017A000F894DEBF0FBECDBFDF91CF911F910F9197
:1017B000FF90EF9008954F925F926F927F928F9279
:1017C0009F92AF92BF92CF92DF92EF92FF920F93D0
:1017D0001F93CF93DF93CDB7DEB7DA950FB6F894AA
:1017E000DEBF0FBECDBF7C015B013A011A821982B8
:1017F000FE0133968EEFDF011D928A95E9F78A018B
:101800000E5F1F4F6B01B1E0CB1AD108623071053A
:101810001CF46FEB7DE0CCC06230710509F4CCC0E4
:10182000DA0112968D909C901397F40180818D328D
:1018300009F0C2C060E375E0C4010E94C74C892B67
:1018400051F46501F2E0CF1AD10883010C5F1F4FFC
:1018500027E03DE0B3C06CE375E0C4010E94C74CD3
:10186000892B51F4650182E0C81AD10883010C5F0D
:101870001F4F2BE13DE0A2C065E475E0C4010E946A
:10188000C74C892B09F098C02501A2E04A1A5108DB
:1018900023E13DE042E050E0B201C30104960E9422
:1018A000F5456801A12CB12C8E010F5F1F4FA114CB
:1018B000B10481F0F6018281938160817181DC0144
:1018C0003C91FB012081321305C00E94C74C892B3B
:1018D00009F461C0D60112968D909C901397C401B3
:1018E0000E9436353C018981882389F0F8010190F6
:1018F0000020E9F7CF01801B910B8F3F910511F07C
:1019000008F03EC06BED70E1C8010E94B14C61145B
:10191000710481F0F80101900020E9F7CF01801BEC
:10192000910B8F3F910509F058F564E374E0C8010D
:101930000E94B14CF80101900020E9F73197CF01E6
:10194000801B910BF40101900020E9F73197E81911
:10195000F909E80FF91FEF3FF10509F088F4B40128
:10196000C8010E94B14C6728B1F0F8010190002035
:10197000E9F7CF01801B910B8F3F910539F030F0D3
:101980006DE475E0C7010E94B1032AC062E374E010
:10199000C8010E94B14CBFEFAB1ABB0AE2E0CE0E09
:1019A000D11CA414B5040CF482CFBE016F5F7F4F2D
:1019B000C7010E949B0314C023E13DE042E050E0D8
:1019C000B601C8010E94F545A801B601CE010196F5
:1019D0000E942602BC01C7010E949B0380E090E0A8
:1019E000D3950FB6F894DEBF0FBECDBFDF91CF9178
:1019F0001F910F91FF90EF90DF90CF90BF90AF902D
:101A00009F908F907F906F905F904F900895FB0113
:101A100060817181FC01808191810E94C74C919508
:101A2000819591090895FB0160817181FC0180819C
:101A300091810C94C74C0F931F93CF93DF938B012D
:101A4000FC01808191810E940B49EC01F8018081A9
:101A500091810E940B499E01281B390BC901181660
:101A600019065CF021E030E0892B11F420E030E031
:101A700088279927821B930B02C081E090E0DF91B9
:101A8000CF911F910F9108952F923F924F925F92A5
:101A90006F927F928F929F92AF92BF92CF92DF927E
:101AA000EF92FF920F931F93CF93DF93CDB7DEB7E3
:101AB000CC50D2400FB6F894DEBF0FBECDBF2C0184
:101AC0008B011A011A8219828EEFFE013396DF0113
:101AD000282F1D922A95E9F73E0131E0630E731E0F
:101AE000F30111921192DF011D928A95E9F764309A
:101AF00071052CF44DE555E06CE875E02DC0FA0158
:101B0000E480F580C7010E94BC39181619060CF54F
:101B1000BC01C7010E949339C95FDD4F9983888357
:101B2000C750D240D1011696ED90FC901797F7015F
:101B30008081853641F462E273E1C7010E94C74C9F
:101B4000892B09F493C0C7010E94BC3918161906E5
:101B50003CF0A70169EA75E0C2010E94AB045CC2D7
:101B6000BC01C7010E949339C75FDD4F9983888309
:101B7000C950D240C95FDD4F28813981C750D2405A
:101B800037FF80C0C75FDD4F88819981C950D2403F
:101B900097FF78C0610198E0C90ED11C5801AA0CCA
:101BA000BB1CA20CB31CCA14DB0409F470C0D60120
:101BB000ED90FD906D01C7010E9436354C01F30197
:101BC0008081882381F001900020E9F7CF018619F8
:101BD00097098F3F910511F008F00EC26BED70E18F
:101BE000C3010E94B14C8114910489F0F30101906A
:101BF0000020E9F7CF01861997098F3F910511F071
:101C000008F0FAC164E374E0C3010E94B14CF3012F
:101C100001900020E9F73197CF0186199709F70164
:101C200001900020E9F73197EE19FF09E80FF91F3D
:101C3000EF3FF10511F008F0DFC1B701C3010E94C9
:101C4000B14C892809F4AFCFF30101900020E9F7E6
:101C5000CF01861997098F3F910511F008F0CCC18B
:101C600062E374E0C3010E94B14C9DCF8824839449
:101C7000912C2FEF3FE7C75FDD4F39832883C95091
:101C8000D24002C0812C912CE12CF12C05C0812C7A
:101C9000912CEE24E394F12CCE010196CF5FDD4F21
:101CA00099838883C150D240BC01D10112968D9195
:101CB0009C9113970E948101CD5FDD4F99838883AA
:101CC000C350D240000F111FF101E00FF11FC55F9B
:101CD000DD4FF983E883CB50D240A12CB12C9E017B
:101CE0002F5F3F4F6901CD5FDD4F88819981C350E0
:101CF000D240892B09F409C1C95FDD4FA881B981A0
:101D0000C750D240AA16BB0674F0C75FDD4FE8810A
:101D1000F981C950D240EA15FB050CF061C081146D
:101D2000910409F05DC0CE0101960E9436358C0108
:101D3000D3018C91882389F0F30101900020E9F709
:101D4000CF01861997098F3F910511F008F054C112
:101D50006BED70E1C3010E94B14C0115110589F0D2
:101D6000F30101900020E9F7CF01861997098F3F11
:101D7000910511F008F040C164E374E0C3010E94D2
:101D8000B14CF30101900020E9F73197CF0186199A
:101D90009709F60101900020E9F73197EC19FD0948
:101DA000E80FF91FEF3FF10511F008F025C1B6016A
:101DB000C3010E94B14C012B09F494C0F3010190BE
:101DC0000020E9F7CF01861997098F3F910511F09F
:101DD00008F012C162E374E0C3010E94B14C82C0FA
:101DE000EF2809F07CC0F1013896CB5FDD4FF98315
:101DF000E883C550D240CB5FDD4F28813981C55083
:101E0000D240C55FDD4F88819981CB50D2402817E1
:101E1000390709F464C0D9010D911D91CB5FDD4FE5
:101E2000B983A883C550D240C8010E9436357C01D1
:101E3000F3018081882381F001900020E9F7CF0130
:101E4000861997098F3F910511F008F0D5C06BED09
:101E500070E1C3010E94B14CE114F10489F0F30177
:101E600001900020E9F7CF01861997098F3F91056E
:101E700011F008F0C1C064E374E0C3010E94B14CEA
:101E8000F30101900020E9F73197CF0186199709F6
:101E9000F80101900020E9F73197E01BF10BE80F02
:101EA000F91FEF3FF10511F008F0A6C0B801C3011A
:101EB0000E94B14CEF2809F49ECFF301019000205D
:101EC000E9F7CF01861997098F3F910511F008F0C6
:101ED00093C062E374E0C3010E94B14C8CCFEE2446
:101EE000E394F12CFFEFAF1ABF0AB601CD5FDD4FCF
:101EF00088819981C350D2400E948101CD5FDD4F1E
:101F000099838883C350D240EECEC95FDD4F2881CC
:101F10003981C750D240A216B30644F4D1011496B9
:101F20004D915C91159767EC75E016CEEF2809F09E
:101F30006FC0B8E02B0E311CC55FDD4FE881F98121
:101F4000CB50D240E215F30509F462C0D1010D91E6
:101F50001D911D01C8010E9436357C01F30180816D
:101F6000882381F001900020E9F7CF0186199709B5
:101F70008F3F910511F008F03FC06BED70E1C30198
:101F80000E94B14CE114F10481F0F30101900020B2
:101F9000E9F7CF01861997098F3F910509F060F5A0
:101FA00064E374E0C3010E94B14CF301019000208E
:101FB000E9F73197CF0186199709F80101900020C0
:101FC000E9F73197E01BF10BE80FF91FEF3FF1053F
:101FD00009F090F4B801C3010E94B14CEF2809F454
:101FE000ABCFF30101900020E9F7CF0186199709E3
:101FF0008F3F910539F030F06DE475E0C2010E9429
:10200000B1030AC062E374E0C3010E94B14C94CFF3
:10201000B301C2010E949B03C45FDD4F0FB6F89469
:10202000DEBF0FBECDBFDF91CF911F910F91FF900B
:10203000EF90DF90CF90BF90AF909F908F907F9068
:102040006F905F904F903F902F9008952F923F9206
:102050004F925F926F927F928F929F92AF92BF92B8
:10206000CF92DF92EF92FF920F931F93CF93DF9364
:10207000CDB7DEB7C250D1400FB6F894DEBF0FBE69
:10208000CDBF7C018B013A011A821982FE01339681
:102090008EEFDF011D928A95E9F7623071052CF40D
:1020A00047EE55E06CE875E022C0FA01C280D380AB
:1020B000C6010E94BC3918161906B4F4BC01C60149
:1020C0000E9493391C01000F111FC301800F911F43
:1020D000CF5FDE4F99838883C150D140A12CB12CB2
:1020E0008E010F5F1F4F3EC0A60169EA75E0C70170
:1020F0000E94AB047EC0F201C190D1902F01C601B5
:102100000E9436354C018981811134C081149104BB
:1021100009F041C0F80101900020E9F73197CF01A3
:10212000801B910BF60101900020E9F73197EC1923
:10213000FD09E80FF91FEF3FF10511F008F047C066
:10214000B601C8010E94B14C8928B1F5CF5FDE4FBE
:10215000A881B981C150D140A415B50561F6FFEF42
:10216000AF1ABF0AA214B304F4F5230194E0490E98
:10217000511CECCFF80101900020E9F7CF01801B42
:10218000910B8F3F910509F010F56BED70E1C801DF
:102190000E94B14CBBCFF80101900020E9F7CF01BC
:1021A000801B910B8F3F910509F088F464E374E084
:1021B000C8010E94B14CAECFF80101900020E9F7B0
:1021C000CF01801B910B8F3F910539F030F06DE40A
:1021D00075E0C7010E94B1030CC062E374E0C8015E
:1021E0000E94B14CB3CFBE016F5F7F4FC7010E9409
:1021F0009B03CE5FDE4F0FB6F894DEBF0FBECDBFA0
:10220000DF91CF911F910F91FF90EF90DF90CF90D2
:10221000BF90AF909F908F907F906F905F904F9006
:102220003F902F9008952F923F924F925F926F921E
:102230007F928F929F92AF92BF92CF92DF92EF9256
:10224000FF920F931F93CF93DF93CDB7DEB7C250AA
:10225000D2400FB6F894DEBF0FBECDBF7C015A014D
:102260001A8219828EEFFE013396DF01982F1D929C
:102270009A95E9F78E010F5F1E4FF80111921192A6
:10228000DF011D928A95E9F76430710529F043E07A
:1022900056E06CE875E01BC0FA01C480D580C60129
:1022A0000E94BC39181619067CF4BC01C6010E94B4
:1022B00093392C01D5011696CD90DC901797F60135
:1022C0008081853679F407C0A60169EA75E0C70107
:1022D0000E94AB04AAC062E273E1C6010E94C74C2F
:1022E000892B99F0C6010E94BC391816190664F7AB
:1022F000BC01C6010E949339CF5FDD4F998388836B
:10230000C150D240212C312C03C022242394312CE3
:10231000CE0101966C01BC01D50112968D919C9164
:1023200013970E9481014C01A12CB12C81149104BE
:1023300009F477C0A414B5040CF46AC02114310464
:1023400051F4CF5FDD4FE881F981C150D240EA15E9
:10235000FB050CF45DC0C6010E9436353C01D80176
:102360008C91882389F0F80101900020E9F7CF01D2
:10237000801B910B8F3F910511F008F03EC06BED73
:1023800070E1C8010E94B14C6114710481F0F80140
:1023900001900020E9F7CF01801B910B8F3F910541
:1023A00009F058F564E374E0C8010E94B14CF801EB
:1023B00001900020E9F73197CF01801B910BF601C6
:1023C00001900020E9F73197EC19FD09E80FF91F9A
:1023D000EF3FF10509F088F4B601C8010E94B14C45
:1023E0006728B1F0F80101900020E9F7CF01801BC8
:1023F000910B8F3F910539F030F06DE475E0C70126
:102400000E94B10312C062E374E0C8010E94B14CA3
:10241000BFEFAB1ABB0AB601C4010E9481014C0197
:1024200085CFB801C7010E949B03CE5FDD4F0FB679
:10243000F894DEBF0FBECDBFDF91CF911F910F91FA
:10244000FF90EF90DF90CF90BF90AF909F908F90D4
:102450007F906F905F904F903F902F9008952F92B4
:102460003F924F925F926F927F928F929F92AF9224
:10247000BF92CF92DF92EF92FF920F931F93CF9371
:10248000DF93CDB7DEB7C450D2400FB6F894DEBFAD
:102490000FBECDBF7C01CF5FDD4F59834883C15054
:1024A000D2401A8219828EEFFE013396DF01982FF7
:1024B0001D929A95E9F78E010F5F1E4FF801119258
:1024C0001192DF011D928A95E9F76430710529F0B8
:1024D0004AE156E06CE875E014C0CF5FDD4FE8815B
:1024E000F981C150D240A280B38040E050E0B501F4
:1024F000C7010E9497026C01009739F4A5016CE7AF
:1025000074E0C7010E94AB0426C1DC0112968D91D4
:102510009C911397892B69F441E050E0B501C70104
:102520000E9497026C01892B21F4A50163E376E0F8
:10253000E8CFCF5FDD4FE881F981C150D240A48060
:10254000B580C5010E94BC3918161906A4F4BC0157
:10255000C5010E9493391C01CE0101965C01BC01AA
:10256000D60112968D919C9113970E9481014C0186
:10257000412C512C51C0A50169EA75E0C2CF42142B
:10258000530409F072C0CF5FDD4FE881F981C1507B
:10259000D24066807780C3010E943635CD5FDD4F23
:1025A00099838883C350D240D8018C91811139C05E
:1025B000CD5FDD4FE881F981C350D240EF2B09F0A8
:1025C00042C0F80101900020E9F73197CF01801B4C
:1025D000910BF30101900020E9F73197E619F70913
:1025E000E80FF91FEF3FF10511F008F097C0B301B4
:1025F000C8010E94B14CCD5FDD4F88819981C350E5
:10260000D240892B09F079C0BFEF4B1A5B0AB501A4
:10261000C4010E9481014C018114910409F0AFCFE3
:1026200080C0F80101900020E9F7CF01801B910BD9
:102630008F3F910511F008F071C06BED70E1C8019A
:102640000E94B14CB5CFF80101900020E9F7CF010D
:10265000801B910B8F3F910511F008F05FC064E380
:1026600074E0C8010E94B14CACCFC5010E94363560
:102670003C01D8018C91882389F0F8010190002059
:10268000E9F7CF01801B910B8F3F910511F008F006
:1026900045C06BED70E1C8010E94B14C611471043A
:1026A00081F0F80101900020E9F7CF01801B910B28
:1026B0008F3F910509F090F564E374E0C8010E9432
:1026C000B14CF80101900020E9F73197CF01801B50
:1026D000910BF50101900020E9F73197EA19FB0908
:1026E000E80FF91FEF3FF10509F0C0F4B501C8018B
:1026F0000E94B14C672809F487CFF80101900020AF
:10270000E9F7CF01801B910B8F3F910509F030F461
:1027100062E374E0C8010E94B14C76CF6DE475E0CD
:1027200007C037FC03C04214530434F462E476E07B
:10273000C7010E94B1030FC0F6016081718120E0E2
:1027400030E0A801C7010E94D902009721F4B80126
:10275000C7010E949B03CC5FDD4F0FB6F894DEBF2C
:102760000FBECDBFDF91CF911F910F91FF90EF90E2
:10277000DF90CF90BF90AF909F908F907F906F90A1
:102780005F904F903F902F900895EF92FF920F939C
:102790001F93CF93DF93CDB7DEB7DA950FB6F894DA
:1027A000DEBF0FBECDBF7C016230710539F04AE556
:1027B00056E06CE875E00E94AB041AC0BE016F5F82
:1027C0007F4FFA01828193810E94810100E010E035
:1027D000009741F00F5F1F4FBE016F5F7F4F0E9458
:1027E0008101F6CFA80166E374E0C7010E94AA0B3D
:1027F000D3950FB6F894DEBF0FBECDBFDF91CF915A
:102800001F910F91FF90EF900895AF92BF92CF92DA
:10281000DF92EF92FF920F931F93CF93DF93CDB789
:10282000DEB7DA950FB6F894DEBF0FBECDBF8C01D0
:102830005A011A821982FE0133968EEFDF011D9232
:102840008A95E9F76330710541F047E656E06CE898
:1028500075E0C8010E94AB0432C0BE016F5F7F4FBC
:10286000FA01828193810E9481017C01C12CD12CCB
:10287000E114F104F9F0BE016F5F7F4FD5011496AA
:102880008D919C9115970E94EA38181619063CF410
:10289000A60166E374E0C8010E94AA0B10C0BFEF56
:1028A000CB1ADB0ABE016F5F7F4FC7010E94810117
:1028B0007C01DECF6CE776E0C8010E949B03D395D4
:1028C0000FB6F894DEBF0FBECDBFDF91CF911F9141
:1028D0000F91FF90EF90DF90CF90BF90AF90089551
:1028E0003F924F925F926F927F928F929F92AF92A0
:1028F000BF92CF92DF92EF92FF920F931F93CF93ED
:10290000DF93CDB7DEB7D2500FB6F894DEBF0FBE5F
:10291000CDBF5C011A8219828EEFFE013396DF0172
:10292000282F1D922A95E9F78E010F5F1E4FF8019F
:1029300011921192DF011D928A95E9F762307105BB
:1029400041F04FE756E06CE875E0C5010E94AB042A
:1029500072C0FA0182819381DC012C91211103C0A4
:102960006FEB7DE065C0B8010E9481014C01E12C54
:10297000F12C9DE7492E2BE7322E30E2532E8114A5
:10298000910409F44EC0F80101900020E9F7319755
:102990003F01601A710AC8010E9436356C019C0122
:1029A000220F331FC3010196820F931FA7014F5FB0
:1029B0005F4FBE016F5F7F4F860F971F0E94984C3D
:1029C000D801E1E0F0E0EC0FFD1FEC0DFD1DC601AC
:1029D0006C0C7D1C8615970524F42D91219301968E
:1029E000F9CFC114D10449F0E1E0F0E0EC0FFD1F94
:1029F000E80FF91F408239820196E1E0F0E0EC0F28
:102A0000FD1FE80FF91F50826C0C7D1CFFEF6F1A41
:102A10007F0AE60CF71CB801C4010E9481014C0139
:102A2000AECFFE01EE0DFF1D1082BE016F5F7F4F26
:102A3000C5010E949B03DE5F0FB6F894DEBF0FBE98
:102A4000CDBFDF91CF911F910F91FF90EF90DF905D
:102A5000CF90BF90AF909F908F907F906F905F903E
:102A60004F903F9008950F931F936430710541F08C
:102A70004DE856E06CE875E01F910F910C94AB04A3
:102A8000FA0126813781448155816281738101E099
:102A900010E00E94571C1F910F910895AF92BF92B2
:102AA000CF92DF92EF92FF921F93CF93DF93CDB738
:102AB000DEB7DA950FB6F894DEBF0FBECDBF7C014E
:102AC0006B015A01FA0180819181FC012081293634
:102AD00039F46FEF70E10E94C74C11E0892B09F0C7
:102AE00010E0F3E0CF16D10441F047EA56E06CE87D
:102AF00075E0C7010E94AB0428C0BE016F5F7F4F25
:102B0000F501848195810E9481016C01892BA9F0D6
:102B1000F501628173819981FB018081981308C05E
:102B2000CE0101960E94C74C892B11F4412F07C09A
:102B3000BE016F5F7F4FC601E6CF41E0412750E005
:102B400066E374E0C7010E94AA0BD3950FB6F89410
:102B5000DEBF0FBECDBFDF91CF911F91FF90EF90F1
:102B6000DF90CF90BF90AF900895DF92EF92FF92E9
:102B70000F931F93CF93DF936330710569F04AEB96
:102B800056E06CE875E0DF91CF911F910F91FF90B7
:102B9000EF90DF900C94AB048A017C01FA018281F2
:102BA000938164817581FC013081FB0120813213A6
:102BB00006C00E94C74CDD24D394892B09F0D12C88
:102BC000CD2DD0E0F80180819181FC0120812E364D
:102BD00051F46CED7EE00E94C74C892B21F441E05A
:102BE0004D2550E001C0AE0166E374E0C701DF91FE
:102BF000CF911F910F91FF90EF90DF900C94AA0B53
:102C00000F931F93CF93DF936530710551F04AEC1A
:102C100056E06CE875E0DF91CF911F910F910C9415
:102C2000AB048A01EC01FA016281738141E050E05A
:102C30000E94DC04009759F5F8016085718541E038
:102C400050E0CE010E94DC048330910511F420E0B5
:102C50001CC00197C9F0F8016681778141E050E01E
:102C6000CE010E94DC04009791F4F8016481758123
:102C7000CE010E94A43A009751F48A859B850E9458
:102C80000B49892BC9F6E3CF21E090E001C0282F42
:102C9000822FDF91CF911F910F9108952F923F9234
:102CA0004F925F926F927F928F929F92AF92BF925C
:102CB000CF92DF92EF92FF920F931F93CF93DF9308
:102CC0003B0121E0621A7108633071052CF446EE75
:102CD00056E06CE875E024C07A011B01EC012A0182
:102CE0005A0124E0C22ED12C03E010E00215130596
:102CF0000CF06BC0F50186809780F40180818536E9
:102D000009F043C06BE177E0C4010E94C74C892BF6
:102D100041F506151705C1F4A40162E277E0CE0182
:102D2000DF91CF911F910F91FF90EF90DF90CF90A7
:102D3000BF90AF909F908F907F906F905F904F90DB
:102D40003F902F900C94AB046C147D04A9F50F5F99
:102D50001F4F000F111FF701E00FF11F408151813C
:102D60000BC062E877E0C4010E94C74C892B69F46C
:102D70000615170521F4A40162E577E0D0CF6C14A5
:102D80007D04D1F067E877E002C065EC77E0CE0122
:102D9000DF91CF911F910F91FF90EF90DF90CF9037
:102DA000BF90AF909F908F907F906F905F904F906B
:102DB0003F902F900C94B1030D5F1F4FF3E0CF0EA7
:102DC000D11C26E0A20EB11C91CFF7016281738164
:102DD000CE010E94A43A009709F06CC08A859B85B9
:102DE0000E940B49892B21F0F7016481758131C064
:102DF00003E010E0021513050CF045C0F2018681D6
:102E00009781FC0120812536D9F46BE177E00E949F
:102E1000C74C892BA9F4F20160857185CE010E940F
:102E2000A43A009709F046C08A859B850E940B4909
:102E3000F6E04F0E511C892B19F10E5F1F4F02C097
:102E40000F5F1F4F000F111FF701E00FF11F60818F
:102E5000718141E050E0CE01DF91CF911F910F9140
:102E6000FF90EF90DF90CF90BF90AF909F908F90AA
:102E70007F906F905F904F903F902F900C94DC0468
:102E80000D5F1F4FB7CF6FEB7DE0CE01DF91CF918C
:102E90001F910F91FF90EF90DF90CF90BF90AF9078
:102EA0009F908F907F906F905F904F903F902F906A
:102EB0000C949B03DF91CF911F910F91FF90EF90A6
:102EC000DF90CF90BF90AF909F908F907F906F904A
:102ED0005F904F903F902F9008956230710531F0D0
:102EE00041EE57E06CE875E00C94AB04FA016281A6
:102EF00073810C94B103CF92DF92EF92FF920F9304
:102F00001F93CF93DF93623071052CF44FEE57E09F
:102F10006CE875E020C0FC01208131811216130697
:102F20008CF5EA018C017A01F2E0EF0EF11C660FDC
:102F3000771FC60FD71FF701C190D1907F0140E0E6
:102F400050E0B601C8010E949702892B71F0A601DA
:102F50006CE078E0C801DF91CF911F910F91FF9055
:102F6000EF90DF90CF900C94AB0420E030E040E095
:102F700050E0B601C8010E94D902892B19F4EC1661
:102F8000FD06C9F680E090E0DF91CF911F910F918F
:102F9000FF90EF90DF90CF900895CF92DF92EF9265
:102FA000FF920F931F93CF93DF93CDB7DEB7DA95E0
:102FB0000FB6F894DEBF0FBECDBF8C017A01CB01F6
:102FC0000297029728F049E258E06CE875E091C05A
:102FD000DA0112964D915C9113976230710511F4EC
:102FE000BA010AC0FA0101900020E9F73197E41B09
:102FF000F50B31F46FEB7DE0C8010E949B037CC0B0
:10300000DA018C91853209F072C0DA01119621E063
:1030100030E031972E173F07B8F48D918B3289F04D
:1030200044F4833271F0873261F0803209F05FC07E
:1030300008C08D3231F00CF45AC080538A3008F049
:1030400056C02F5F3F4FE6CFFA01E20FF31F80819A
:103050008936C9F074F48835B1F034F4853209F05A
:1030600046C06AE578E0C8CF8356823008F03FC09A
:103070000AC0833719F11CF48F36C9F504C08537AF
:1030800011F08837A1F5F701C480D580C6010E94F0
:10309000BC391816190674F4BC01C6010E94933994
:1030A000D70112966D917C911397AC01C8010E94D3
:1030B000AA0B22C0A60169EA75E01BC0F701858151
:1030C0008F9384818F935F934F93CE0101967C0100
:1030D0009F938F930E945B4DB701C8010E949B0391
:1030E0000F900F900F900F900F900F9005C063E41A
:1030F00078E0C8010E94AB04D3950FB6F894DEBF08
:103100000FBECDBFDF91CF911F910F91FF90EF9038
:10311000DF90CF9008952F923F924F925F926F92DF
:103120007F928F929F92AF92BF92CF92DF92EF9257
:10313000FF920F931F93CF93DF93CDB7DEB7C250AB
:10314000D1400FB6F894DEBF0FBECDBF7C015B014E
:103150001A011A821982FE0133968EEFDF011D9249
:103160008A95E9F760FF08C04CE558E06CE875E027
:10317000C7010E94AB044CC162307105A1F5FA0190
:103180000281138160E270E0C8010E94BC4C892B6F
:1031900029F162E778E0CE0101966C010E94D04CE3
:1031A000F60101900020E9F73197CF018C199D09B4
:1031B000F80101900020E9F73197E01BF10BE80FCF
:1031C000F91FEF3FF10511F008F00AC1B801C6017F
:1031D0000E94B14C41E050E0B60117C1B801C701EF
:1031E0000E949B0315C18E010F5F1F4FF8010190D4
:1031F0000020E9F73197CF01801B910BDA0114967B
:10320000CD90DC901597F60101900020E9F73197F9
:10321000EC19FD09E80FF91FEF3FF10511F008F077
:10322000DFC0B601C8010E94B14CF10182809380D9
:10323000C4010E9436353C018981882389F0F80158
:1032400001900020E9F7CF01801B910B8F3F910582
:1032500011F008F0C5C06BED70E1C8010E94B14CDF
:103260006114710489F0F80101900020E9F7CF01A1
:10327000801B910B8F3F910511F008F0B1C064E302
:1032800074E0C8010E94B14CF80101900020E9F7F8
:103290003197CF01801B910BF40101900020E9F7D9
:1032A0003197E819F909E80FF91FEF3FF10511F01F
:1032B00008F096C0B401C8010E94B14C672889F09B
:1032C000F80101900020E9F7CF01801B910B8F3F9F
:1032D000910511F008F084C062E374E0C8010E9417
:1032E000B14C83E0682E712CC5010197CF5FDE4F92
:1032F00099838883C150D1406A147B040CF082C04A
:10330000CF5FDE4FA881B981C150D1406A167B06DC
:103310008CF4F10180859185DC013C91F6012081DE
:10332000321305C0B6010E94C74C892B19F068E71B
:1033300078E058C0D10116968D909C901797C401E3
:103340000E9436352C018981882389F0F80101908B
:103350000020E9F7CF01801B910B8F3F910511F001
:1033600008F03EC06BED70E1C8010E94B14C411401
:10337000510481F0F80101900020E9F7CF01801B92
:10338000910B8F3F910509F058F564E374E0C80193
:103390000E94B14CF80101900020E9F73197CF016C
:1033A000801B910BF40101900020E9F73197E81997
:1033B000F909E80FF91FEF3FF10509F088F4B401AE
:1033C000C8010E94B14C4528B1F0F80101900020DD
:1033D000E9F7CF01801B910B8F3F910539F030F059
:1033E0006DE475E0C7010E94B10312C062E374E0AE
:1033F000C8010E94B14CB2E06B0E711CE4E02E0ECD
:10340000311C7ACF41E050E0B801C7010E94DC04D2
:10341000CE5FDE4F0FB6F894DEBF0FBECDBFDF919B
:10342000CF911F910F91FF90EF90DF90CF90BF90C1
:10343000AF909F908F907F906F905F904F903F9054
:103440002F9008954F925F926F927F928F929F92EA
:10345000AF92BF92CF92DF92EF92FF920F931F93A2
:10346000CF93DF93CDB7DEB7D2500FB6F894DEBF5F
:103470000FBECDBF6C014B015A018E010F5F1E4F75
:1034800080910A0190910B01F801819391938EEF45
:10349000DF011D928A95E9F76330710544F44DE828
:1034A00058E06CE875E0C6010E94AB047EC1FA01E9
:1034B00082819381DC012C912436D1F463EA78E097
:1034C0000E94C74C7C01892B09F06AC16FE270E051
:1034D000F501848195810E94F44C009731F0DC0164
:1034E0001C92F5016481758157C16FEB7DE054C179
:1034F0002A36A9F56BEA78E00E94C74C7C01892B3B
:1035000009F04EC1D50114966D917C911597C801B3
:103510000E94D04C3501B6E06B0E711C880C991CD2
:103520008A0C9B1C8614970409F41CC1F301A1901A
:10353000B1903F01D5018C918823A1F3B50182EBB5
:1035400098E00E94EA38892B09F031C1B50180EB7F
:1035500098E00E94EA38892B09F029C12DC1233750
:1035600009F002C168EB78E00E94C74C7C01892B0E
:1035700009F016C1F501A480B580D5018C918F3278
:10358000A1F4F80101900020E9F7CF01801B910B15
:103590008F3F910511F008F0DDC066EB78E0C801BF
:1035A0000E94B14CBFEFAB1ABB0AFE0131963F013E
:1035B0006FE270E0C5010E94BC4C2C01009709F439
:1035C00072C04C018A189B08A401B501C3010E9476
:1035D0008F4CF301E80DF91D1082C3010E943635AE
:1035E0005C01D8018C91882389F0F80101900020BA
:1035F000E9F7CF01801B910B8F3F910511F008F087
:10360000A9C06BED70E1C8010E94B14CA114B104D6
:1036100089F0F80101900020E9F7CF01801B910BA0
:103620008F3F910511F008F095C064E374E0C80184
:103630000E94B14CF80101900020E9F73197CF01C9
:10364000801B910BF30101900020E9F73197E619F7
:10365000F709E80FF91FEF3FF10511F008F07AC004
:10366000B301C8010E94B14CAB2889F0F801019068
:103670000020E9F7CF01801B910B8F3F910511F0DE
:1036800008F068C062E374E0C8010E94B14CBFEF6B
:103690004B1A5B0A5201EFEF4E1A5E0AD5018C916C
:1036A0008F32C1F385CFF5018081882309F45AC098
:1036B000C5010E9436354C01D8018C91882389F0D0
:1036C000F80101900020E9F7CF01801B910B8F3F9B
:1036D000910511F008F03EC06BED70E1C8010E9449
:1036E000B14C8114910481F0F80101900020E9F7B8
:1036F000CF01801B910B8F3F910509F058F564E3D2
:1037000074E0C8010E94B14CF80101900020E9F773
:103710003197CF01801B910BF50101900020E9F753
:103720003197EA19FB09E80FF91FEF3FF10509F09E
:1037300088F4B501C8010E94B14C892899F0F801BC
:1037400001900020E9F7CF01801B910B8F3F91057D
:1037500021F018F06DE475E025C062E374E0C80163
:103760000E94B14CB80118C02437D1F46EEB78E058
:103770000E94C74C7C01892B99F4F50104811581C5
:103780006FE270E0C8010E94F44C009711F4C80188
:103790000197BC016F5F7F4FC6010E949B0343C02E
:1037A00063EC78E0C6010E94B1037C013CC0B50126
:1037B000C8010E94D04CB6CED8018C918823C1F0AC
:1037C000B80185EB98E00E94EA38892B89F4F8016A
:1037D00001900020E9F7CF01801B910B8F3F9105ED
:1037E00011F008F0B7CF66EB78E0C8010E94B14C49
:1037F000F80101900020E9F73197CF01801B910B70
:10380000F50101900020E9F73197EA19FB09E80F6B
:10381000F91FEF3FF10511F008F09CCFB501C80189
:103820000E94B14C7FCEC701DE5F0FB6F894DEBFB9
:103830000FBECDBFDF91CF911F910F91FF90EF9001
:10384000DF90CF90BF90AF909F908F907F906F90C0
:103850005F904F9008950F931F93CF93DF93CDB751
:10386000DEB7DA950FB6F894DEBF0FBECDBF8C0180
:10387000623071053CF44BEE58E06CE875E00E9454
:10388000AB040AC0CE0101960E947E3841E050E0B0
:10389000BC01C8010E94DC04D3950FB6F894DEBFCA
:1038A0000FBECDBFDF91CF911F910F9108952F9241
:1038B0003F924F925F926F927F928F929F92AF92C0
:1038C000BF92CF92DF92EF92FF920F931F93CF930D
:1038D000DF93CDB7DEB7D3500FB6F894DEBF0FBE7F
:1038E000CDBF19011A8219823EEFFE013396DF0126
:1038F000232F1D922A95E9F77E01AFEFEA1AADEF6B
:10390000FA0AF70111921192DF011D923A95E9F737
:10391000FA012081222309F4D4C028016A013B0165
:103920008C01BE016F5F7E4FC3010E9481015C016B
:10393000BE016F5F7F4FC6010E9481016C01C114FF
:10394000D10421F4A114B10409F4B6C020E030E0A0
:10395000AE014F5F5F4FBE016F5F7E4FC8010E9497
:10396000D902009709F0B1C0BE016F5F7E4FC5015B
:103970000E9481015C01892B09F084C041E050E084
:10398000B101C8010E94DC048130910509F49BC09B
:103990008330910509F490C04114510409F464C0C6
:1039A000049709F461C0D8011A96AD90BC901B979A
:1039B000C5010E9436354C01F7018081882381F0D2
:1039C00001900020E9F7CF018E199F098F3F9105E3
:1039D00011F008F03EC06BED70E1C7010E94B14CE0
:1039E0008114910481F0F70101900020E9F7CF01E3
:1039F0008E199F098F3F910509F058F564E374E033
:103A0000C7010E94B14CF70101900020E9F73197FE
:103A1000CF018E199F09F50101900020E9F7319738
:103A2000EA19FB09E80FF91FEF3FF10509F088F4E7
:103A3000B501C7010E94B14C8928B1F0F70101908E
:103A40000020E9F7CF018E199F098F3F910539F0CA
:103A500030F06DE475E0C8010E94B10336C062E346
:103A600074E0C7010E94B14CBE016F5F7E4FC3017D
:103A70000E9481015C01C114D104F1F08824839477
:103A8000912C05C0C114D10471F0812C912CBE0180
:103A90006F5F7F4FC6010E9481016C01892B09F085
:103AA0004ECF892849F46FEB7DE0CE0101960E944C
:103AB000D04CC12CD12C43CFB701C8010E949B032D
:103AC00004C080E001C081E090E0DD5F0FB6F894B3
:103AD000DEBF0FBECDBFDF91CF911F910F91FF9041
:103AE000EF90DF90CF90BF90AF909F908F907F909E
:103AF0006F905F904F903F902F9008950F931F937A
:103B00006430710541F04EEF58E06CE875E01F91AC
:103B10000F910C94AB04FA012681378144815581C1
:103B20006281738100E010E00E94571C1F910F9189
:103B300008954F925F926F927F928F929F92AF9271
:103B4000BF92CF92DF92EF92FF920F931F93CF938A
:103B5000DF93CDB7DEB7DA950FB6F894DEBF0FBEB0
:103B6000CDBF7C013B011A821982FE0133968EEF94
:103B7000DF011D928A95E9F72A01B2E04B0E511C34
:103B8000AA24A394B12C8E010F5F1F4FA614B70473
:103B90000CF064C0F201C190D1902F01C6010E94C7
:103BA00036354C018981882389F0F8010190002085
:103BB000E9F7CF01801B910B8F3F910511F008F0C1
:103BC0003EC06BED70E1C8010E94B14C81149104BC
:103BD00081F0F80101900020E9F7CF01801B910BE3
:103BE0008F3F910509F058F564E374E0C8010E9425
:103BF000B14CF80101900020E9F73197CF01801B0B
:103C0000910BF60101900020E9F73197EC19FD09BD
:103C1000E80FF91FEF3FF10509F088F4B601C8017C
:103C20000E94B14C8928B1F0F80101900020E9F719
:103C3000CF01801B910B8F3F910539F030F06DE47F
:103C400075E0C7010E94B1030DC062E374E0C801D2
:103C50000E94B14CFFEFAF1ABF0A98CFB801C7015D
:103C60000E949B03D3950FB6F894DEBF0FBECDBF65
:103C7000DF91CF911F910F91FF90EF90DF90CF9048
:103C8000BF90AF909F908F907F906F905F904F907C
:103C900008956F927F928F929F92AF92BF92CF9230
:103CA000DF92EF92FF920F931F93CF93DF93CDB7E5
:103CB000DEB7D2500FB6F894DEBF0FBECDBF5C01A9
:103CC0001A8219828EEFFE013396DF01982F1D9222
:103CD0009A95E9F78E010F5F1E4FF801119211922C
:103CE000DF011D928A95E9F7CB010297029740F018
:103CF0004BE159E06CE875E0C5010E94AB046AC075
:103D00006330710521F4FA01C480D58004C08BEDC5
:103D1000C82E80E1D82ECE0101967C01BC01DA01CB
:103D200012968D919C9113970E9481014C01612CF8
:103D3000712C8114910409F444C0F8010190002011
:103D4000E9F73197CF01801B910BF701019000201B
:103D5000E9F73197EE19FF09E80FF91FEF3FF10579
:103D600009F0F8F4B701C8010E94B14CF8010190C4
:103D70000020E9F73197CF01801B910B3801680EC5
:103D8000791EF60120812223B1F001900020E9F78D
:103D90003197EC19FD09E80FF91FEF3FF10539F0F4
:103DA00030F06DE475E0C5010E94B10313C0B601A7
:103DB000C8010E94B14CB701C4010E9481014C01AD
:103DC000B8CF6114710411F0D3011C92B801C50180
:103DD0000E949B03DE5F0FB6F894DEBF0FBECDBF1F
:103DE000DF91CF911F910F91FF90EF90DF90CF90D7
:103DF000BF90AF909F908F907F906F9008952F927B
:103E00003F924F925F926F927F928F929F92AF926A
:103E1000BF92CF92DF92EF92FF920F931F93CF93B7
:103E2000DF93CDB7DEB7C850D2400FB6F894DEBFEF
:103E30000FBECDBF7C015B013A011A8219828EEF61
:103E4000FE013396DF01282F1D922A95E9F78E0196
:103E50000F5F1E4FF80111921192DF011D928A959A
:103E6000E9F7633071052CF442E359E06CE875E042
:103E700028C0FA01C480D580D6018C91853639F4EA
:103E800062E273E1C6010E94C74C892BF1F0C601C2
:103E90000E94BC39181619068CF4BC01C6010E9498
:103EA0009339CB5FDD4F99838883C550D240CD5F76
:103EB000DD4F19821882C350D24017C0A60169EAAB
:103EC00075E0C7010E94AB04A7C1E1E0F0E0CD5F5F
:103ED000DD4FF983E883C350D2402FEF3FEFCB5F34
:103EE000DD4F39832883C550D240CE0101966C0145
:103EF000BC01D30112968D919C9113970E94810170
:103F00004C01AA0CBB1CF301EA0DFB1DC95FDD4F80
:103F1000F983E883C750D240412C512C212C312CFD
:103F20008114910409F4F7C04114510409F091C0BF
:103F3000CD5FDD4F28813981C350D240232B09F05A
:103F400088C0CB5FDD4F88819981C550D2408215F2
:103F5000930509F07EC0D3011696CF5FDD4FB9837C
:103F6000A883C150D240CF5FDD4FE881F981C150B5
:103F7000D240C95FDD4F28813981C750D240E21756
:103F8000F30709F466C0A190B190CF5FDD4FF983CC
:103F9000E883C150D240C5010E9436352C01D801BA
:103FA0008C91882389F0F80101900020E9F7CF0176
:103FB000801B910B8F3F910511F008F01DC16BED37
:103FC00070E1C8010E94B14C4114510489F0F8011C
:103FD00001900020E9F7CF01801B910B8F3F9105E5
:103FE00011F008F009C164E374E0C8010E94B14C0B
:103FF000F80101900020E9F73197CF01801B910B68
:10400000F50101900020E9F73197EA19FB09E80F63
:10401000F91FEF3FF10511F008F0EEC0B501C8013E
:104020000E94B14C452889F0F80101900020E9F781
:10403000CF01801B910B8F3F910511F008F0DCC080
:1040400062E374E0C8010E94B14C44244394512CB3
:104050008ACFC6010E9436355C01F8018081882331
:1040600081F001900020E9F7CF01801B910B8F3F79
:10407000910511F008F0C0C06BED70E1C8010E941D
:10408000B14CA114B10489F0F80101900020E9F7C6
:10409000CF01801B910B8F3F910511F008F0ACC050
:1040A00064E374E0C8010E94B14CF8010190002063
:1040B000E9F73197CF01801B910BF60101900020A9
:1040C000E9F73197EC19FD09E80FF91FEF3FF1050A
:1040D00011F008F091C0B601C8010E94B14CAB28A4
:1040E00089F0F80101900020E9F7CF01801B910BC6
:1040F0008F3F910511F008F07FC062E374E0C801C2
:104100000E94B14CFFEF2F1A3F0AB601C4010E9472
:1041100081014C0105CF452821F426E0620E711C77
:1041200034C0CD5FDD4F88819981C350D240892B47
:1041300009F46EC0F2CFF301C190D1903F01C601E6
:104140000E9436355C01D8018C91811128C0A114E0
:10415000B104B1F5F80101900020E9F73197CF01E2
:10416000801B910BF60101900020E9F73197EC19C3
:10417000FD09E80FF91FEF3FF10509F0E8F5B60179
:10418000C8010E94B14CAB2861F5C95FDD4FA88121
:10419000B981C750D2406A167B0669F639C0F8016A
:1041A00001900020E9F7CF01801B910B8F3F910513
:1041B00009F010F56BED70E1C8010E94B14CC7CF5A
:1041C000F80101900020E9F7CF01801B910B8F3F90
:1041D000910509F088F464E374E0C8010E94B14CD1
:1041E000B9CFF80101900020E9F7CF01801B910BB6
:1041F0008F3F910539F030F06DE475E0C7010E9402
:10420000B1030AC062E374E0C8010E94B14CBDCFA3
:10421000B801C7010E949B03C85FDD4F0FB6F89439
:10422000DEBF0FBECDBFDF91CF911F910F91FF90E9
:10423000EF90DF90CF90BF90AF909F908F907F9046
:104240006F905F904F903F902F900895CF92DF92A4
:10425000EF92FF920F931F93CF93DF93CDB7DEB70B
:10426000DA950FB6F894DEBF0FBECDBF8C016A01A0
:104270001A821982FE0133968EEFDF011D928A9514
:10428000E9F7CB010297029728F04BE559E06CE87B
:1042900075E02AC06230710521F4FA0162817381F0
:1042A0003EC0DA011496ED90FC901597F7018081DD
:1042B000853639F462E273E1C7010E94C74C892B4D
:1042C000B9F0C7010E94BC391816190654F4BC0194
:1042D000C7010E9493397C0197FF0DC06FEB7DE011
:1042E0001EC0A70169EA75E0C8010E94AB0429C09D
:1042F000EE24EA94FE2CBE016F5F7F4FD60112962A
:104300008D919C9113970E948101C12CD12C009713
:1043100099F0CE14DF0439F4BE016F5F7F4FC801FE
:104320000E949B030EC0BE016F5F7F4F0E94810100
:10433000BFEFCB1ADB0AEBCFEF20E09469F380E00C
:1043400090E0D3950FB6F894DEBF0FBECDBFDF91DE
:10435000CF911F910F91FF90EF90DF90CF90089534
:104360002F923F924F925F926F927F928F929F9285
:10437000AF92BF92CF92DF92EF92FF920F931F9373
:10438000CF93DF93CDB7DEB7C250D2400FB6F894CB
:10439000DEBF0FBECDBF7C013B012A011A8219820C
:1043A000FE0133968EEFDF011D928A95E9F76230A8
:1043B000710544F44FE659E06CE875E0C7010E94CE
:1043C000AB04BFC05E01E1E0AE0EBE1EB501DA0176
:1043D00012968D919C9113970E9481014C011201BC
:1043E00032E0C32ED12C8E010F5F1F4F8114910438
:1043F00009F488C0C614D7046CF4F1016481758196
:1044000020E030E0A501C7010E94D902009709F41D
:104410006DC097C0C5010E943635CF5FDD4F9983CF
:104420008883C150D2408981882389F0F8010190A6
:104430000020E9F7CF01801B910B8F3F910511F010
:1044400008F049C06BED70E1C8010E94B14CCF5F2C
:10445000DD4F88819981C150D240892B81F0F801CC
:1044600001900020E9F7CF01801B910B8F3F910550
:1044700009F088F564E374E0C8010E94B14CF801CA
:1044800001900020E9F73197CF01801B910BF501D6
:1044900001900020E9F73197EA19FB09E80FF91FAD
:1044A000EF3FF10509F0B8F4B501C8010E94B14C25
:1044B000CF5FDD4FA881B981C150D240AB2BB1F0A5
:1044C000F80101900020E9F7CF01801B910B8F3F8D
:1044D000910539F030F06DE475E0C7010E94B10339
:1044E00030C062E374E0C8010E94B14CBFEFCB1A48
:1044F000DB0AB501C4010E9481014C01E2E02E0EED
:10450000311C74CFC601880F991F480E591EC6145E
:10451000D7048CF4D2016D917D912D0120E030E023
:104520004FEB5DE0C7010E94D902009751F4BFEF45
:10453000CB1ADB0AECCFBE016F5F7F4FC7010E9431
:104540009B03CE5FDD4F0FB6F894DEBF0FBECDBF2D
:10455000DF91CF911F910F91FF90EF90DF90CF905F
:10456000BF90AF909F908F907F906F905F904F9093
:104570003F902F9008954F925F926F927F928F920B
:104580009F92AF92BF92CF92DF92EF92FF920F93E2
:104590001F93CF93DF93CDB7DEB7DA950FB6F894BC
:1045A000DEBF0FBECDBF7C016B014A011A821982AA
:1045B000FE0133968EEFDF011D928A95E9F7623096
:1045C000710544F44AE859E06CE875E0C7010E94BF
:1045D000AB0495C0FA01A280B38040E050E0B50181
:1045E000C7010E9497028E010F5F1F4F009741F095
:1045F000DC0112966D917C911397C8010E94D04CFA
:104600003401B4E06B0E711CCC0CDD1C24014C0C8D
:104610005D1C6414750409F462C0F301C190D1906B
:104620003F01C6010E9436354C018981882389F0FB
:10463000F80101900020E9F7CF01801B910B8F3F1B
:10464000910511F008F03FC06BED70E1C8010E94C8
:10465000B14C8114910481F0F80101900020E9F738
:10466000CF01801B910B8F3F910509F060F564E34A
:1046700074E0C8010E94B14CF80101900020E9F7F4
:104680003197CF01801B910BF60101900020E9F7D3
:104690003197EC19FD09E80FF91FEF3FF10509F01B
:1046A00090F4B601C8010E94B14C892809F4B1CF39
:1046B000F80101900020E9F7CF01801B910B8F3F9B
:1046C000910539F030F06DE475E0C7010E94B10347
:1046D00016C062E374E0C8010E94B14C9ACF20E09A
:1046E00030E0A801B501C7010E94D902892B29F445
:1046F000B801C7010E949B0302C080E090E0D395FF
:104700000FB6F894DEBF0FBECDBFDF91CF911F91E2
:104710000F91FF90EF90DF90CF90BF90AF909F9060
:104720008F907F906F905F904F9008954F925F921F
:104730006F927F928F929F92AF92BF92CF92DF92B1
:10474000EF92FF920F931F93CF93DF93CDB7DEB716
:10475000DA950FB6F894DEBF0FBECDBF8C015B01BA
:104760003A011A821982FE0133968EEFDF011D9203
:104770008A95E9F7CB010297029728F04CEA59E0B5
:104780006CE875E027C2F801C680D780DA0112967E
:10479000ED90FC901397F7014080F0E74F1209C0AD
:1047A00066EF79E0C7010E94C74C892B09F43EC22D
:1047B00005C0512C6330710569F406C0E3E0AE1604
:1047C000B10409F0D0C1512CD30114968D909C9066
:1047D000159704C021E8822E2FE0922EB6E74B12E7
:1047E00003C06CEF7AE005C0E7E64E12AAC06CEF9A
:1047F00079E0C7010E94C74C892B09F0E6C1D801B6
:104800001496CD90DC901597B7E64B120EC06CEF66
:1048100079E0C7010E94C74C892B39F4F6018481E5
:104820009581009711F06C01F9CFD601CD90DC9005
:10483000FE0131967F01C114D10409F47EC0D60176
:10484000AD90BC90B501C4010E94EA381816190653
:104850000CF05BC0C5010E9436355C01898188235C
:1048600089F0F70101900020E9F7CF018E199F0927
:104870008F3F910511F008F005C16BED70E1C701A4
:104880000E94B14CA114B10489F0F70101900020FD
:10489000E9F7CF018E199F098F3F910511F008F0BC
:1048A000F1C064E374E0C7010E94B14CF7010190CC
:1048B0000020E9F73197CF018E199F09F601608139
:1048C0007181FB0101900020E9F73197E61BF70B9E
:1048D000E80FF91FEF3FF10511F008F0D3C0C70151
:1048E0000E94B14CAB2889F0F70101900020E9F754
:1048F000CF018E199F098F3F910511F008F0C2C0BA
:1049000062E374E0C7010E94B14CD6011496CD90C9
:10491000DC90159790CFF3E64F1269C068E37AE018
:10492000C7010E94C74C892B09F04FC1CE010196E7
:104930007C01C114D10409F05EC0BE016F5F7F4FDE
:1049400022C1B1E64B1203C064E07AE005C0E2E6A2
:104950004E12E1CF68E67FE0C7010E94C74C892B69
:1049600009F033C1F2E0AF16B10499F4A70169E090
:104970007AE030C1D601AD90BC90F30164817581BD
:10498000D5019C91FB018081981739F0F601C68012
:10499000D780C114D10471F722C1C5010E94C74C50
:1049A000892BA1F7D6011496CD90DC901597C114F0
:1049B000D104C9F0B1E64B120AC064E07AE0C70145
:1049C0000E94C74CE1E0892B19F4E0E001C0E1E06E
:1049D000F0E0EE0FFF1FEC0DFD1D60817181C8013D
:1049E0000E949B03FAC0A50161E27AE0F3C0552062
:1049F00009F455C09BCF552041F0D60114968D91F6
:104A00009C911597892B09F446C0F601A080B180CE
:104A1000B501C4010E94EA3818161906E4F5C5016B
:104A20000E9436355C018981882381F0F70101906D
:104A30000020E9F7CF018E199F098F3F910509F0FA
:104A400008F56BED70E1C7010E94B14CA114B104EF
:104A500009F0C8C0F70101900020E9F73197CF01B4
:104A60008E199F09D6016D917C91FB010190002068
:104A7000E9F73197E61BF70BE80FF91FEF3FF10558
:104A800021F018F06DE475E01CC0C7010E94B14C24
:104A9000AB2809F0B9C0F601C680D7804ACFF5E649
:104AA0004F1224C062E278E0C7010E94C74C6C013B
:104AB000892B09F08CC083E0A816B10431F061E4C1
:104AC0007AE0C8010E94B10388C0D30114966D91A9
:104AD0007C91159740E050E0C8010E94970241E0A8
:104AE00050E0892BB1F440E050E013C0BCE64B121B
:104AF00037C066E77AE0C7010E94C74C6C01892B7A
:104B000009F065C0E2E0AE16B10449F4D8014D9158
:104B10005C9166E374E0C8010E94AA0B93C0F301A4
:104B2000E480F580C7010E94BC391816190674F498
:104B3000BC01C7010E949339892B61F4D8011496F6
:104B4000ED91FC911597628173813BC0A70169EAE1
:104B500075E040C0F301448155816CE57AE03AC0CC
:104B6000F0E74F1214C061E77AE0C7010E94C74C1A
:104B7000892B39F06CE77AE0C7010E94C74C892B7A
:104B800031F56FE77AE0C8010E949B0328C083E7F4
:104B900048121DC065E87AE0C7010E94C74C6C014D
:104BA000892BA9F440E050E06CE87AE0C8010E944B
:104BB0009702009709F446C0DC0112966D917C9132
:104BC0001397C8010E949B033DC05110AFCEA701AF
:104BD00067E97AE0C8010E94AB046C0133C0C12CC4
:104BE000D12C30C0F70101900020E9F7CF018E19D8
:104BF0009F098F3F910511F008F044CF64E374E002
:104C0000C7010E94B14C26CFF70101900020E9F7BF
:104C1000CF018E199F098F3F910511F008F032CF17
:104C200062E374E0C7010E94B14C35CF5524539420
:104C3000B3E0AB16B10409F4C7CD81E8882E8FE04C
:104C4000982E74CEC601D3950FB6F894DEBF0FBE72
:104C5000CDBFDF91CF911F910F91FF90EF90DF902B
:104C6000CF90BF90AF909F908F907F906F905F900C
:104C70004F900895CF92DF92EF92FF920F931F9380
:104C8000CF93DF939B01225031092230310528F068
:104C900041E05BE06CE875E02DC07A016B01EC014E
:104CA000FA010281138140E050E0B8010E949702AE
:104CB000009751F1FC0122813381232B41F441E023
:104CC00050E0B801CE010E9497020097E9F0FC0184
:104CD00002811381C8010E94BC391816190634F4E8
:104CE000BC01C8010E9493398C0110C0A80169EA77
:104CF00075E0CE01DF91CF911F910F91FF90EF9062
:104D0000DF90CF900C94AB0400E010E0F3E0CF16FE
:104D1000D10481F4F701C480D580C6010E94BC395A
:104D2000181619062CF4BC01C6010E94933904C060
:104D3000A601DDCF81E090E0080F191FF701628125
:104D40007381A801CE010E946003A80166E374E0AC
:104D5000CE01DF91CF911F910F91FF90EF90DF90E7
:104D6000CF900C94AA0B9B012150310922303105C0
:104D700030F04AE15BE06CE875E00C94AB04623023
:104D8000710521F4FA016281738102C06FEB7DE04D
:104D90000E949B0382E090E008950F931F93CF93AE
:104DA000DF938C01C82FD12F8881882339F0082EFA
:104DB000000C990B0E946D4C8993F6CFC801DF91CE
:104DC000CF911F910F9108952F923F924F925F9232
:104DD0006F927F928F929F92AF92BF92CF92DF920B
:104DE000EF92FF920F931F93CF93DF93CDB7DEB770
:104DF000C651D6400FB6F894DEBF0FBECDBF2C0112
:104E00004B015A016E012FEFC21A2AEFD20A6090AD
:104E10000A0270900B02F601619271929EEFF92ED8
:104E2000DF012F2D1D922A95E9F7633071051CF4DF
:104E30004FE25BE031C0DA0112960D911C9113979D
:104E4000F8013080FCE63F1215C06EE373E1C80143
:104E50000E94C74C7C01892B09F062C0F501A48136
:104E6000B581FD0101900020E9F73197AF014A1BA0
:104E70005B0BE4C3F3E63F1223C06CE47BE0C801A4
:104E80000E94C74C7C01892B09F003C524E08216DF
:104E9000910449F044E55BE06CE875E0C2010E94D2
:104EA000AB047C01FCC4D50116966D917C911797DB
:104EB00014968D919C9115970E94C74CAC01BEC36E
:104EC000B5E63B1227C069E67BE0C8010E94C74CEB
:104ED0007C01892B09F0DDC4E4E08E16910419F001
:104EE0004FE65BE0D9CFD50114968D919C91159733
:104EF00016966D917C911797FC013081DB012C9106
:104F0000321305C00E94C74C41E0892B09F040E0F4
:104F100050E094C3B6E63B125FC062E87BE002C09B
:104F200064EE7BE0C8010E94C74C892B09F0B1C434
:104F3000C4010497029720F0A80168E87BE0AECF97
:104F4000E5E08E16910491F4D50118960D911C910F
:104F50001997C8010E94BC39181619060CF092C3A3
:104F6000BC01C8010E9493398C0102C000E010E02E
:104F7000F50182819381DC012C91E480F580C6806B
:104F8000D780263669F462E87BE00E94C74C892B03
:104F900039F4B701C601800F911F0E94FF4C0EC06B
:104FA0000C0D1D1DB701C8010E94FF4C009721F098
:104FB0008C010F5F1F4FF6CFC8010197009721F0BA
:104FC000AC014C195D0902C04FEF5FEF66E374E07E
:104FD000C2010E94AA0B61C4B9E63B1208C06FE28D
:104FE00073E1C8010E94C74C892B61F0FBC2E2E764
:104FF0003E12A0C064E576E0C8010E94C74C892B30
:1050000009F022C3F501A481B581FD0101900020C2
:10501000E9F731977F01EA1AFB0AF9E63F120EC061
:105020006FE273E1C8010E94C74C892B39F424E078
:105030008216910451F04CEA5BE02ECF35E08316E6
:10504000910419F04AEC5BE027CF41E0E41AF10843
:10505000D50116960D911C911797F8018081853620
:1050600039F462E273E1C8010E94C74C892B69F0F0
:10507000C8010E94BC39181619060CF003C3BC0104
:10508000C8010E9493394C0101C04701D501129615
:105090008D919C911397FC012081293631F46FE2A8
:1050A00073E10E94C74C892BE1F0D50118960D9150
:1050B0001C911997F8018081853639F462E273E119
:1050C000C8010E94C74C892B71F0C8010E94BC39ED
:1050D000181619060CF0D6C2BC01C8010E949339FB
:1050E00003C0C40101C0C701B40197FE02C060E063
:1050F00070E08C01E816F9060CF487010617170713
:105100000CF4CBC3A801461B570B4F5F5F4FD50173
:1051100014968D919C911597680F791FC6010E9476
:10512000E54CF601E00FF11F1182B601C2010E94A9
:105130009B03B3C3BDE63B12F8C266E473E1C8014A
:105140000E94C74C892B09F0EBC11E01EFEF2E1A0C
:10515000EBEF3E0AF10161927192DF012F2D1D925A
:105160002A95E9F7AE014F5F5C4FCF5FD94F598366
:105170004883C150D640FA0161927192DF012F2D10
:105180001D922A95E9F75A95CD5FD94F59834883E7
:10519000C350D640FA0161927192DF011D92FA94D8
:1051A000E9F7B4E08B16910461F4F50104811581EF
:1051B00066817781C75FD94F19821882C950D6405E
:1051C00028C0F5E08F16910409F5D50114968D914C
:1051D0009C911597FC0120812D32C1F469EE7BE092
:1051E0000E94C74C892B91F4D50116960D911C9104
:1051F000179718966D917C911997E1E0F0E0C75FE1
:10520000D94FF983E883C950D64003C061EF7BE0F2
:1052100033C0CE018F5F9D4F0E94D04CB101C801B9
:105220000E94810121E031E02C0F3D1F2E5F3F4F96
:10523000CB5ED94F39832883C551D640AE014D5F2F
:105240005F4FCB5FD94F59834883C550D640DE01AD
:1052500011965D01BE01009709F45FC16F5F7C4F3D
:105260000E948101C55FD94F99838883CB50D64076
:10527000892B31F469E17CE0C2010E94B10311CEB7
:10528000F1018081882309F43EC1CD5FD94FE881C7
:10529000F981C350D64001900020E9F731979F0172
:1052A000CD5FD94F48815981C350D640241B350B5F
:1052B000C35FD94F39832883CD50D640F101019087
:1052C0000020E9F73197CF0182199309C15FD94FC7
:1052D00099838883CF50D640CF5FD94FE881F98139
:1052E000C150D64001900020E9F73197DF01CF5F30
:1052F000D94F28813981C150D640A21BB30BCF5E54
:10530000D94FB983A883C151D640CF5FDE4F798290
:105310006882C150D140CB5ED94FA881B981C551B7
:10532000D640EEEF1D92EA95E9F77A826982CB5F6B
:10533000D94FA881B981C550D640EEEF1D92EA95AC
:10534000E9F79E012F5F3D4FC95FD94F398328830D
:10535000C750D64000E010E0E12CF12CC12CD12C3C
:10536000C95FD94F88819981C750D640CD5FD94F49
:1053700048815981C350D640841B950BC35FD94FD8
:10538000A881B981CD50D6408A179B070CF08FC0F9
:10539000C95FD94FE881F981C750D6409190C95F64
:1053A000D94FF983E883C750D640F101EC0DFD1DBC
:1053B0008080C75FD94F28813981C950D640232BBF
:1053C000D9F0892D092C000C990B0E946D4CCD5EF3
:1053D000D94F99838883C351D640882D880C990B67
:1053E0000E946D4CCD5ED94F48815981C351D64042
:1053F0004817590769F402C098100AC0F501E00F78
:10540000F11F90820F5F1F4F5FEFC51AD50A20C0B2
:10541000A1E0B1E0AC0FBD1FAE0DBF1DF501CF0186
:105420008A199B09801791071CF481918D93F7CFFE
:10543000E00EF11EE1E0F1E0EC0FFD1FEE0DFF1DAF
:1054400090828FEFE81AF80A00E010E0C12CD12C0E
:10545000C15FD94FA881B981CF50D640AC15BD05E9
:1054600009F07ECFFE01EF5FFC4FA1E0B1E0AC0F91
:10547000BD1FAE0DBF1D80E090E09C012E0D3F1DB5
:10548000CF5ED94F48815981C151D64084179507C5
:105490003CF441914D932F3F310514F40196EDCF2B
:1054A00079012F3F310514F500E010E057CF8FEF61
:1054B000E816F104DCF4A1E0B1E0AC0FBD1FAE0DC5
:1054C000BF1DF501CF018A199B09801791071CF4B4
:1054D00081918D93F7CFA1E0B1E0AC0FBD1FEA0E33
:1054E000FB1EF701E00FF11F108205C0C050DE4F18
:1054F0001882C050D240BE016F5F7E4FCE018F5FD9
:105500009D4F0E94D04CB101C55FD94F88819981D0
:10551000CB50D6400E9481019DCE6F5F7D4FB5C1BB
:1055200062E37CE0C8010E94C74C892B09F0B1C13D
:10553000B4E08B16910489F4F5010481158166812C
:105540007781C8010E94EA3897FF02C0A80138C0DD
:1055500041E050E0892BE9F53AC0F5E08F1691045F
:10556000F1F5D50114968D919C911597FC01208140
:105570002D32A9F569EE7BE00E94C74C892B79F5A5
:10558000D50116968D919C9117970E94754C8C01B0
:105590000E94CD26F501808591850E94CD26D501FA
:1055A00018966D917C911997C8010E94EA387C0188
:1055B000C8010E94D249F7FE06C0F5014681578115
:1055C00068E37CE06BCC41E050E0EF2811F440E070
:1055D00050E066E374E0C2010E94AA0B62CC62E56F
:1055E0007CE04ACE6EE67CE0C8010E94C74C892B65
:1055F00009F04FC1F4E08F16910481F4D50114969F
:105600008D919C911597FC012081293639F462EC2B
:1056100070E10E94C74C7C01892B19F041E75CE0E6
:105620003BCCD50116968D919C9117970E94BC3961
:1056300041E050E0892B11F440E050E066E374E073
:10564000C2010E94AA0B2BC162E573E1C8010E944E
:10565000C74C7C01892B09F044C0F50106811781F4
:10566000C8010E94BC391816190664F4BC01C801AF
:105670000E9493398C01F4E08F16910439F4812C47
:10568000912C0DC0A80169EA75E008CC43E85CE004
:1056900003CCC6010E94B14CBFEF8B1A9B0A801647
:1056A0009106ECF4F60101900020E9F73197CF0163
:1056B0008C199D09D50114966D917C911597FB016C
:1056C00001900020E9F73197E61BF70BE80FF91F6F
:1056D000EF3FF105F1F2E8F26DE475E0CDCDB601F2
:1056E0005BC063E673E1C8010E94C74C7C01892B53
:1056F00009F0CFC0E3E08E16910419F04EE95CE0AA
:10570000CBCBD50114966D917C911597FB0101903F
:105710000020E9F73297DB01AE17BF07E8F58C915F
:1057200090819D9380833197F7CFB4E73B12B1C04E
:1057300061EB7CE0C8010E94C74C7C01892BD1F44D
:10574000E3E08E169104B1F4D5011496CC90149731
:105750001596DC908601F8018081882349F0082E97
:10576000000C990B0E94654CD8018D938D01F3CFED
:10577000B60112C065E77DE0C8010E94C74C7C01FC
:10578000892B71F4B3E08B16910451F4F5018481F7
:1057900095810E94CD26BC01C2010E949B037FC05F
:1057A00069EB7CE0C8010E94C74C892B79F06EEB55
:1057B0007CE0C8010E94C74C892B41F067EC7CE07B
:1057C000C8010E94C74C892B09F063C0C40103972C
:1057D000029718F041ED5CE05FCBF4E08F16910486
:1057E00031F4D50116968D909C90179704C08AE2EB
:1057F000882E8BE0982EF501E480F58067EC7CE044
:10580000C8010E94C74C892B81F037015301D30195
:105810006D913D01662351F0062E000C770BC401FB
:105820000E94BC4C892B91F701C05701F7010190F0
:105830000020E9F79F012150310979016EEB7CE0EE
:10584000C8010E94C74C892B89F0EA14FB0470F050
:10585000D7016C91062E000C770BC4010E94BC4C42
:10586000892B21F0B1E0EB1AF108EFCFEA18FB0821
:10587000EFEFEE1AFE0AA701B501C6010E94E54C42
:10588000F601EE0DFF1D1082B601C2010E949B03BE
:1058900008CBA80168EF7CE001CBE12CF12CC7011B
:1058A000CA5ED94F0FB6F894DEBF0FBECDBFDF91F1
:1058B000CF911F910F91FF90EF90DF90CF90BF900D
:1058C000AF909F908F907F906F905F904F903F90A0
:1058D0002F9008954F925F926F927F928F929F9236
:1058E000AF92BF92CF92DF92EF92FF920F931F93EE
:1058F000CF93DF93CDB7DEB7D2500FB6F894DEBFAB
:105900000FBECDBF8C01FA011A8219828EEF9E0163
:105910002D5F3F4FD901982F1D929A95E9F77E018F
:10592000A1E0EA0EFA1ED7011D921D921D928A95E2
:10593000E9F7CB010297029740F04DE75DE06CE894
:1059400075E0C8010E94AB045BC16330710519F4B6
:105950004480558004C08BED482E80E1582ED20142
:105960002C9192818381A92EB82E211166C0FE014F
:1059700031966F01D5018D915D01882309F43AC1FB
:10598000F7018083C7010E9436354C018981882345
:1059900089F0F60101900020E9F7CF018C199D09EB
:1059A0008F3F910511F008F01AC16BED70E1C6014F
:1059B0000E94B14C8114910489F0F60101900020FD
:1059C000E9F7CF018C199D098F3F910511F008F07F
:1059D00006C164E374E0C6010E94B14CF601019077
:1059E0000020E9F73197CF018C199D09F70101904B
:1059F0000020E9F73197EE19FF09E80FF91FEF3F93
:105A0000F10511F008F0EBC0B701C6010E94B14CDE
:105A1000892809F4AFCFF60101900020E9F7CF0102
:105A20008C199D098F3F910511F008F0D8C062E3F1
:105A300074E0C6010E94B14C9DCF45019E012F5FCD
:105A40003F4F6901D4016D913D01662309F472C095
:105A5000062E000C770BC2010E94BC4C892B09F466
:105A600067C08A189B08A401B501C7010E94E54CD4
:105A7000F701E80DF91D1082C7010E9436355C015F
:105A80008981882389F0F60101900020E9F7CF0190
:105A90008C199D098F3F910511F008F0A0C06BEDA6
:105AA00070E1C6010E94B14CA114B10489F0F60165
:105AB00001900020E9F7CF018C199D098F3F9105D6
:105AC00011F008F08CC064E374E0C6010E94B14C90
:105AD000F60101900020E9F73197CF018C199D095B
